{
	"zombiefeeding.sol": {
		"ZombieFeeding": {
			"abi": [
				{
					"anonymous": false,
					"inputs": [
						{
							"indexed": false,
							"internalType": "uint256",
							"name": "zombieId",
							"type": "uint256"
						},
						{
							"indexed": false,
							"internalType": "string",
							"name": "name",
							"type": "string"
						},
						{
							"indexed": false,
							"internalType": "uint256",
							"name": "dna",
							"type": "uint256"
						}
					],
					"name": "NewZombie",
					"type": "event"
				},
				{
					"anonymous": false,
					"inputs": [
						{
							"indexed": true,
							"internalType": "address",
							"name": "previousOwner",
							"type": "address"
						},
						{
							"indexed": true,
							"internalType": "address",
							"name": "newOwner",
							"type": "address"
						}
					],
					"name": "OwnershipTransferred",
					"type": "event"
				},
				{
					"constant": false,
					"inputs": [
						{
							"internalType": "string",
							"name": "_name",
							"type": "string"
						}
					],
					"name": "createRandomZombie",
					"outputs": [],
					"payable": false,
					"stateMutability": "nonpayable",
					"type": "function"
				},
				{
					"constant": false,
					"inputs": [
						{
							"internalType": "uint256",
							"name": "_zombieId",
							"type": "uint256"
						},
						{
							"internalType": "uint256",
							"name": "_kittyId",
							"type": "uint256"
						}
					],
					"name": "feedOnKitty",
					"outputs": [],
					"payable": false,
					"stateMutability": "nonpayable",
					"type": "function"
				},
				{
					"constant": true,
					"inputs": [],
					"name": "isOwner",
					"outputs": [
						{
							"internalType": "bool",
							"name": "",
							"type": "bool"
						}
					],
					"payable": false,
					"stateMutability": "view",
					"type": "function"
				},
				{
					"constant": true,
					"inputs": [],
					"name": "owner",
					"outputs": [
						{
							"internalType": "address",
							"name": "",
							"type": "address"
						}
					],
					"payable": false,
					"stateMutability": "view",
					"type": "function"
				},
				{
					"constant": false,
					"inputs": [],
					"name": "renounceOwnership",
					"outputs": [],
					"payable": false,
					"stateMutability": "nonpayable",
					"type": "function"
				},
				{
					"constant": false,
					"inputs": [
						{
							"internalType": "address",
							"name": "_address",
							"type": "address"
						}
					],
					"name": "setKittyContractAddress",
					"outputs": [],
					"payable": false,
					"stateMutability": "nonpayable",
					"type": "function"
				},
				{
					"constant": false,
					"inputs": [
						{
							"internalType": "address",
							"name": "newOwner",
							"type": "address"
						}
					],
					"name": "transferOwnership",
					"outputs": [],
					"payable": false,
					"stateMutability": "nonpayable",
					"type": "function"
				},
				{
					"constant": true,
					"inputs": [
						{
							"internalType": "uint256",
							"name": "",
							"type": "uint256"
						}
					],
					"name": "zombieToOwner",
					"outputs": [
						{
							"internalType": "address",
							"name": "",
							"type": "address"
						}
					],
					"payable": false,
					"stateMutability": "view",
					"type": "function"
				},
				{
					"constant": true,
					"inputs": [
						{
							"internalType": "uint256",
							"name": "",
							"type": "uint256"
						}
					],
					"name": "zombies",
					"outputs": [
						{
							"internalType": "string",
							"name": "name",
							"type": "string"
						},
						{
							"internalType": "uint256",
							"name": "dna",
							"type": "uint256"
						},
						{
							"internalType": "uint32",
							"name": "level",
							"type": "uint32"
						},
						{
							"internalType": "uint32",
							"name": "readyTime",
							"type": "uint32"
						},
						{
							"internalType": "uint16",
							"name": "winCount",
							"type": "uint16"
						},
						{
							"internalType": "uint16",
							"name": "lossCount",
							"type": "uint16"
						}
					],
					"payable": false,
					"stateMutability": "view",
					"type": "function"
				}
			],
			"devdoc": {
				"methods": {
					"isOwner()": {
						"return": "true if `msg.sender` is the owner of the contract."
					},
					"owner()": {
						"return": "the address of the owner."
					},
					"renounceOwnership()": {
						"details": "Allows the current owner to relinquish control of the contract."
					},
					"transferOwnership(address)": {
						"details": "Allows the current owner to transfer control of the contract to a newOwner.",
						"params": {
							"newOwner": "The address to transfer ownership to."
						}
					}
				}
			},
			"evm": {
				"assembly": "    /* \"zombiefeeding.sol\":400:1690  contract ZombieFeeding is ZombieFactory {\r... */\n  0x80\n  0x40\n  dup2\n  swap1\n  mstore\n    /* \"zombiefactory.sol\":303:305  16 */\n  0x10\n    /* \"zombiefactory.sol\":286:305  uint dnaDigits = 16 */\n  0x01\n  sstore\n    /* \"zombiefactory.sol\":328:343  10 ** dnaDigits */\n  0x2386f26fc10000\n    /* \"zombiefactory.sol\":310:343  uint dnaModulus = 10 ** dnaDigits */\n  0x02\n  sstore\n    /* \"zombiefactory.sol\":368:374  1 days */\n  0x015180\n    /* \"zombiefactory.sol\":348:374  uint cooldownTime = 1 days */\n  0x03\n  sstore\n  0x00\n    /* \"ownable.sol\":529:548  _owner = msg.sender */\n  dup1\n  sload\n  not(sub(shl(0xa0, 0x01), 0x01))\n  and\n    /* \"ownable.sol\":538:548  msg.sender */\n  caller\n    /* \"ownable.sol\":529:548  _owner = msg.sender */\n  or\n  dup1\n  dup3\n  sstore\n  sub(shl(0xa0, 0x01), 0x01)\n    /* \"ownable.sol\":593:599  _owner */\n  and\n  swap2\n    /* \"ownable.sol\":560:600  OwnershipTransferred(address(0), _owner) */\n  0x8be0079c531659141344cd1fd0a4f28419497f9722a3daafe3b4186f6b6457e0\n  swap1\n  dup3\n  swap1\n  log3\n    /* \"zombiefeeding.sol\":400:1690  contract ZombieFeeding is ZombieFactory {\r... */\n  dataSize(sub_0)\n  dup1\n  dataOffset(sub_0)\n  0x00\n  codecopy\n  0x00\n  return\nstop\n\nsub_0: assembly {\n        /* \"zombiefeeding.sol\":400:1690  contract ZombieFeeding is ZombieFactory {\r... */\n      mstore(0x40, 0x80)\n      callvalue\n        /* \"--CODEGEN--\":8:17   */\n      dup1\n        /* \"--CODEGEN--\":5:7   */\n      iszero\n      tag_1\n      jumpi\n        /* \"--CODEGEN--\":30:31   */\n      0x00\n        /* \"--CODEGEN--\":27:28   */\n      dup1\n        /* \"--CODEGEN--\":20:32   */\n      revert\n        /* \"--CODEGEN--\":5:7   */\n    tag_1:\n        /* \"zombiefeeding.sol\":400:1690  contract ZombieFeeding is ZombieFactory {\r... */\n      pop\n      jumpi(tag_2, lt(calldatasize, 0x04))\n      shr(0xe0, calldataload(0x00))\n      dup1\n      0x715018a6\n      gt\n      tag_12\n      jumpi\n      dup1\n      0x715018a6\n      eq\n      tag_7\n      jumpi\n      dup1\n      0x7bff0a01\n      eq\n      tag_8\n      jumpi\n      dup1\n      0x8da5cb5b\n      eq\n      tag_9\n      jumpi\n      dup1\n      0x8f32d59b\n      eq\n      tag_10\n      jumpi\n      dup1\n      0xf2fde38b\n      eq\n      tag_11\n      jumpi\n      jump(tag_2)\n    tag_12:\n      dup1\n      0x17a7f4cc\n      eq\n      tag_3\n      jumpi\n      dup1\n      0x2052465e\n      eq\n      tag_4\n      jumpi\n      dup1\n      0x528b7b8f\n      eq\n      tag_5\n      jumpi\n      dup1\n      0x5f4623f1\n      eq\n      tag_6\n      jumpi\n    tag_2:\n      0x00\n      dup1\n      revert\n        /* \"zombiefeeding.sol\":1489:1687  function feedOnKitty(uint _zombieId, uint _kittyId) public {\r... */\n    tag_3:\n      tag_13\n      0x04\n      dup1\n      calldatasize\n      sub\n        /* \"--CODEGEN--\":13:15   */\n      0x40\n        /* \"--CODEGEN--\":8:11   */\n      dup2\n        /* \"--CODEGEN--\":5:16   */\n      lt\n        /* \"--CODEGEN--\":2:4   */\n      iszero\n      tag_14\n      jumpi\n        /* \"--CODEGEN--\":29:30   */\n      0x00\n        /* \"--CODEGEN--\":26:27   */\n      dup1\n        /* \"--CODEGEN--\":19:31   */\n      revert\n        /* \"--CODEGEN--\":2:4   */\n    tag_14:\n      pop\n        /* \"zombiefeeding.sol\":1489:1687  function feedOnKitty(uint _zombieId, uint _kittyId) public {\r... */\n      dup1\n      calldataload\n      swap1\n      0x20\n      add\n      calldataload\n      tag_15\n      jump\t// in\n    tag_13:\n      stop\n        /* \"zombiefactory.sol\":527:550  Zombie[] public zombies */\n    tag_4:\n      tag_16\n      0x04\n      dup1\n      calldatasize\n      sub\n        /* \"--CODEGEN--\":13:15   */\n      0x20\n        /* \"--CODEGEN--\":8:11   */\n      dup2\n        /* \"--CODEGEN--\":5:16   */\n      lt\n        /* \"--CODEGEN--\":2:4   */\n      iszero\n      tag_17\n      jumpi\n        /* \"--CODEGEN--\":29:30   */\n      0x00\n        /* \"--CODEGEN--\":26:27   */\n      dup1\n        /* \"--CODEGEN--\":19:31   */\n      revert\n        /* \"--CODEGEN--\":2:4   */\n    tag_17:\n      pop\n        /* \"zombiefactory.sol\":527:550  Zombie[] public zombies */\n      calldataload\n      tag_18\n      jump\t// in\n    tag_16:\n      0x40\n      dup1\n      mload\n      0x20\n      dup1\n      dup3\n      add\n      dup9\n      swap1\n      mstore\n      0xffffffff\n      dup1\n      dup9\n      and\n      swap4\n      dup4\n      add\n      swap4\n      swap1\n      swap4\n      mstore\n      swap2\n      dup6\n      and\n      0x60\n      dup3\n      add\n      mstore\n      0xffff\n      dup1\n      dup6\n      and\n      0x80\n      dup4\n      add\n      mstore\n      dup4\n      and\n      0xa0\n      dup3\n      add\n      mstore\n      0xc0\n      dup1\n      dup3\n      mstore\n      dup9\n      mload\n      swap1\n      dup3\n      add\n      mstore\n      dup8\n      mload\n      swap1\n      swap2\n      dup3\n      swap2\n      0xe0\n      dup4\n      add\n      swap2\n      dup11\n      add\n      swap1\n      dup1\n      dup4\n      dup4\n      0x00\n        /* \"--CODEGEN--\":8:108   */\n    tag_19:\n        /* \"--CODEGEN--\":33:36   */\n      dup4\n        /* \"--CODEGEN--\":30:31   */\n      dup2\n        /* \"--CODEGEN--\":27:37   */\n      lt\n        /* \"--CODEGEN--\":8:108   */\n      iszero\n      tag_21\n      jumpi\n        /* \"--CODEGEN--\":90:101   */\n      dup2\n      dup2\n      add\n        /* \"--CODEGEN--\":84:102   */\n      mload\n        /* \"--CODEGEN--\":71:82   */\n      dup4\n      dup3\n      add\n        /* \"--CODEGEN--\":64:103   */\n      mstore\n        /* \"--CODEGEN--\":52:54   */\n      0x20\n        /* \"--CODEGEN--\":45:55   */\n      add\n        /* \"--CODEGEN--\":8:108   */\n      jump(tag_19)\n    tag_21:\n        /* \"--CODEGEN--\":12:26   */\n      pop\n        /* \"zombiefactory.sol\":527:550  Zombie[] public zombies */\n      pop\n      pop\n      pop\n      swap1\n      pop\n      swap1\n      dup2\n      add\n      swap1\n      0x1f\n      and\n      dup1\n      iszero\n      tag_22\n      jumpi\n      dup1\n      dup3\n      sub\n      dup1\n      mload\n      0x01\n      dup4\n      0x20\n      sub\n      0x0100\n      exp\n      sub\n      not\n      and\n      dup2\n      mstore\n      0x20\n      add\n      swap2\n      pop\n    tag_22:\n      pop\n      swap8\n      pop\n      pop\n      pop\n      pop\n      pop\n      pop\n      pop\n      pop\n      mload(0x40)\n      dup1\n      swap2\n      sub\n      swap1\n      return\n        /* \"zombiefactory.sol\":557:603  mapping (uint => address) public zombieToOwner */\n    tag_5:\n      tag_23\n      0x04\n      dup1\n      calldatasize\n      sub\n        /* \"--CODEGEN--\":13:15   */\n      0x20\n        /* \"--CODEGEN--\":8:11   */\n      dup2\n        /* \"--CODEGEN--\":5:16   */\n      lt\n        /* \"--CODEGEN--\":2:4   */\n      iszero\n      tag_24\n      jumpi\n        /* \"--CODEGEN--\":29:30   */\n      0x00\n        /* \"--CODEGEN--\":26:27   */\n      dup1\n        /* \"--CODEGEN--\":19:31   */\n      revert\n        /* \"--CODEGEN--\":2:4   */\n    tag_24:\n      pop\n        /* \"zombiefactory.sol\":557:603  mapping (uint => address) public zombieToOwner */\n      calldataload\n      tag_25\n      jump\t// in\n    tag_23:\n      0x40\n      dup1\n      mload\n      sub(shl(0xa0, 0x01), 0x01)\n      swap1\n      swap3\n      and\n      dup3\n      mstore\n      mload\n      swap1\n      dup2\n      swap1\n      sub\n      0x20\n      add\n      swap1\n      return\n        /* \"zombiefeeding.sol\":593:716  function setKittyContractAddress(address _address) external onlyOwner {\r... */\n    tag_6:\n      tag_13\n      0x04\n      dup1\n      calldatasize\n      sub\n        /* \"--CODEGEN--\":13:15   */\n      0x20\n        /* \"--CODEGEN--\":8:11   */\n      dup2\n        /* \"--CODEGEN--\":5:16   */\n      lt\n        /* \"--CODEGEN--\":2:4   */\n      iszero\n      tag_27\n      jumpi\n        /* \"--CODEGEN--\":29:30   */\n      0x00\n        /* \"--CODEGEN--\":26:27   */\n      dup1\n        /* \"--CODEGEN--\":19:31   */\n      revert\n        /* \"--CODEGEN--\":2:4   */\n    tag_27:\n      pop\n        /* \"zombiefeeding.sol\":593:716  function setKittyContractAddress(address _address) external onlyOwner {\r... */\n      calldataload\n      sub(shl(0xa0, 0x01), 0x01)\n      and\n      tag_28\n      jump\t// in\n        /* \"ownable.sol\":1314:1444  function renounceOwnership() public onlyOwner {\r... */\n    tag_7:\n      tag_13\n      tag_30\n      jump\t// in\n        /* \"zombiefactory.sol\":1149:1383  function createRandomZombie(string memory _name) public {\r... */\n    tag_8:\n      tag_13\n      0x04\n      dup1\n      calldatasize\n      sub\n        /* \"--CODEGEN--\":13:15   */\n      0x20\n        /* \"--CODEGEN--\":8:11   */\n      dup2\n        /* \"--CODEGEN--\":5:16   */\n      lt\n        /* \"--CODEGEN--\":2:4   */\n      iszero\n      tag_32\n      jumpi\n        /* \"--CODEGEN--\":29:30   */\n      0x00\n        /* \"--CODEGEN--\":26:27   */\n      dup1\n        /* \"--CODEGEN--\":19:31   */\n      revert\n        /* \"--CODEGEN--\":2:4   */\n    tag_32:\n        /* \"zombiefactory.sol\":1149:1383  function createRandomZombie(string memory _name) public {\r... */\n      dup2\n      add\n      swap1\n      0x20\n      dup2\n      add\n      dup2\n      calldataload\n        /* \"--CODEGEN--\":21:32   */\n      0x0100000000\n        /* \"--CODEGEN--\":5:33   */\n      dup2\n      gt\n        /* \"--CODEGEN--\":2:4   */\n      iszero\n      tag_33\n      jumpi\n        /* \"--CODEGEN--\":46:47   */\n      0x00\n        /* \"--CODEGEN--\":43:44   */\n      dup1\n        /* \"--CODEGEN--\":36:48   */\n      revert\n        /* \"--CODEGEN--\":2:4   */\n    tag_33:\n        /* \"zombiefactory.sol\":1149:1383  function createRandomZombie(string memory _name) public {\r... */\n      dup3\n      add\n        /* \"--CODEGEN--\":35:44   */\n      dup4\n        /* \"--CODEGEN--\":28:32   */\n      0x20\n        /* \"--CODEGEN--\":12:26   */\n      dup3\n        /* \"--CODEGEN--\":8:33   */\n      add\n        /* \"--CODEGEN--\":5:45   */\n      gt\n        /* \"--CODEGEN--\":2:4   */\n      iszero\n      tag_34\n      jumpi\n        /* \"--CODEGEN--\":58:59   */\n      0x00\n        /* \"--CODEGEN--\":55:56   */\n      dup1\n        /* \"--CODEGEN--\":48:60   */\n      revert\n        /* \"--CODEGEN--\":2:4   */\n    tag_34:\n        /* \"zombiefactory.sol\":1149:1383  function createRandomZombie(string memory _name) public {\r... */\n      dup1\n      calldataload\n      swap1\n      0x20\n      add\n      swap2\n        /* \"--CODEGEN--\":100:109   */\n      dup5\n        /* \"--CODEGEN--\":95:96   */\n      0x01\n        /* \"--CODEGEN--\":81:93   */\n      dup4\n        /* \"--CODEGEN--\":77:97   */\n      mul\n        /* \"--CODEGEN--\":67:75   */\n      dup5\n        /* \"--CODEGEN--\":63:98   */\n      add\n        /* \"--CODEGEN--\":60:110   */\n      gt\n        /* \"--CODEGEN--\":39:50   */\n      0x0100000000\n        /* \"--CODEGEN--\":25:37   */\n      dup4\n        /* \"--CODEGEN--\":22:51   */\n      gt\n        /* \"--CODEGEN--\":11:118   */\n      or\n        /* \"--CODEGEN--\":8:10   */\n      iszero\n      tag_35\n      jumpi\n        /* \"--CODEGEN--\":131:132   */\n      0x00\n        /* \"--CODEGEN--\":128:129   */\n      dup1\n        /* \"--CODEGEN--\":121:133   */\n      revert\n        /* \"--CODEGEN--\":8:10   */\n    tag_35:\n        /* \"zombiefactory.sol\":1149:1383  function createRandomZombie(string memory _name) public {\r... */\n      swap2\n      swap1\n      dup1\n      dup1\n      0x1f\n      add\n      0x20\n      dup1\n      swap2\n      div\n      mul\n      0x20\n      add\n      mload(0x40)\n      swap1\n      dup2\n      add\n      0x40\n      mstore\n      dup1\n      swap4\n      swap3\n      swap2\n      swap1\n      dup2\n      dup2\n      mstore\n      0x20\n      add\n      dup4\n      dup4\n        /* \"--CODEGEN--\":30:33   */\n      dup1\n        /* \"--CODEGEN--\":22:28   */\n      dup3\n        /* \"--CODEGEN--\":14:20   */\n      dup5\n        /* \"--CODEGEN--\":1:34   */\n      calldatacopy\n        /* \"--CODEGEN--\":99:100   */\n      0x00\n        /* \"--CODEGEN--\":81:97   */\n      swap3\n      add\n        /* \"--CODEGEN--\":74:101   */\n      swap2\n      swap1\n      swap2\n      mstore\n      pop\n        /* \"zombiefactory.sol\":1149:1383  function createRandomZombie(string memory _name) public {\r... */\n      swap3\n      swap6\n      pop\n      tag_36\n      swap5\n      pop\n      pop\n      pop\n      pop\n      pop\n      jump\t// in\n        /* \"ownable.sol\":664:736  function owner() public view returns(address) {\r... */\n    tag_9:\n      tag_23\n      tag_38\n      jump\t// in\n        /* \"ownable.sol\":962:1047  function isOwner() public view returns(bool) {\r... */\n    tag_10:\n      tag_39\n      tag_40\n      jump\t// in\n    tag_39:\n      0x40\n      dup1\n      mload\n      swap2\n      iszero\n      iszero\n      dup3\n      mstore\n      mload\n      swap1\n      dup2\n      swap1\n      sub\n      0x20\n      add\n      swap1\n      return\n        /* \"ownable.sol\":1608:1711  function transferOwnership(address newOwner) public onlyOwner {\r... */\n    tag_11:\n      tag_13\n      0x04\n      dup1\n      calldatasize\n      sub\n        /* \"--CODEGEN--\":13:15   */\n      0x20\n        /* \"--CODEGEN--\":8:11   */\n      dup2\n        /* \"--CODEGEN--\":5:16   */\n      lt\n        /* \"--CODEGEN--\":2:4   */\n      iszero\n      tag_42\n      jumpi\n        /* \"--CODEGEN--\":29:30   */\n      0x00\n        /* \"--CODEGEN--\":26:27   */\n      dup1\n        /* \"--CODEGEN--\":19:31   */\n      revert\n        /* \"--CODEGEN--\":2:4   */\n    tag_42:\n      pop\n        /* \"ownable.sol\":1608:1711  function transferOwnership(address newOwner) public onlyOwner {\r... */\n      calldataload\n      sub(shl(0xa0, 0x01), 0x01)\n      and\n      tag_43\n      jump\t// in\n        /* \"zombiefeeding.sol\":1489:1687  function feedOnKitty(uint _zombieId, uint _kittyId) public {\r... */\n    tag_15:\n        /* \"zombiefeeding.sol\":1597:1610  kittyContract */\n      sload(0x07)\n        /* \"zombiefeeding.sol\":1597:1629  kittyContract.getKitty(_kittyId) */\n      0x40\n      dup1\n      mload\n      shl(0xe0, 0xe98b7f4d)\n      dup2\n      mstore\n      0x04\n      dup2\n      add\n      dup5\n      swap1\n      mstore\n      swap1\n      mload\n        /* \"zombiefeeding.sol\":1555:1568  uint kittyDna */\n      0x00\n      swap3\n      sub(shl(0xa0, 0x01), 0x01)\n        /* \"zombiefeeding.sol\":1597:1610  kittyContract */\n      and\n      swap2\n        /* \"zombiefeeding.sol\":1597:1619  kittyContract.getKitty */\n      0xe98b7f4d\n      swap2\n        /* \"zombiefeeding.sol\":1597:1629  kittyContract.getKitty(_kittyId) */\n      0x24\n      dup1\n      dup4\n      add\n      swap3\n      0x0140\n      swap3\n      swap2\n      swap1\n      dup3\n      swap1\n      sub\n      add\n      dup2\n        /* \"zombiefeeding.sol\":1597:1610  kittyContract */\n      dup7\n        /* \"zombiefeeding.sol\":1597:1629  kittyContract.getKitty(_kittyId) */\n      dup1\n      extcodesize\n      iszero\n        /* \"--CODEGEN--\":5:7   */\n      dup1\n      iszero\n      tag_45\n      jumpi\n        /* \"--CODEGEN--\":30:31   */\n      0x00\n        /* \"--CODEGEN--\":27:28   */\n      dup1\n        /* \"--CODEGEN--\":20:32   */\n      revert\n        /* \"--CODEGEN--\":5:7   */\n    tag_45:\n        /* \"zombiefeeding.sol\":1597:1629  kittyContract.getKitty(_kittyId) */\n      pop\n      gas\n      staticcall\n      iszero\n        /* \"--CODEGEN--\":8:17   */\n      dup1\n        /* \"--CODEGEN--\":5:7   */\n      iszero\n      tag_46\n      jumpi\n        /* \"--CODEGEN--\":45:61   */\n      returndatasize\n        /* \"--CODEGEN--\":42:43   */\n      0x00\n        /* \"--CODEGEN--\":39:40   */\n      dup1\n        /* \"--CODEGEN--\":24:62   */\n      returndatacopy\n        /* \"--CODEGEN--\":77:93   */\n      returndatasize\n        /* \"--CODEGEN--\":74:75   */\n      0x00\n        /* \"--CODEGEN--\":67:94   */\n      revert\n        /* \"--CODEGEN--\":5:7   */\n    tag_46:\n        /* \"zombiefeeding.sol\":1597:1629  kittyContract.getKitty(_kittyId) */\n      pop\n      pop\n      pop\n      pop\n      mload(0x40)\n      returndatasize\n        /* \"--CODEGEN--\":13:16   */\n      0x0140\n        /* \"--CODEGEN--\":8:11   */\n      dup2\n        /* \"--CODEGEN--\":5:17   */\n      lt\n        /* \"--CODEGEN--\":2:4   */\n      iszero\n      tag_47\n      jumpi\n        /* \"--CODEGEN--\":30:31   */\n      0x00\n        /* \"--CODEGEN--\":27:28   */\n      dup1\n        /* \"--CODEGEN--\":20:32   */\n      revert\n        /* \"--CODEGEN--\":2:4   */\n    tag_47:\n      pop\n        /* \"zombiefeeding.sol\":1597:1629  kittyContract.getKitty(_kittyId) */\n      0x0120\n      add\n      mload\n      0x40\n        /* \"zombiefeeding.sol\":1636:1681  feedAndMultiply(_zombieId, kittyDna, \"kitty\") */\n      dup1\n      mload\n      dup1\n      dup3\n      add\n      swap1\n      swap2\n      mstore\n      0x05\n      dup2\n      mstore\n      shl(0xd8, 0x6b69747479)\n        /* \"zombiefeeding.sol\":1597:1629  kittyContract.getKitty(_kittyId) */\n      0x20\n        /* \"zombiefeeding.sol\":1636:1681  feedAndMultiply(_zombieId, kittyDna, \"kitty\") */\n      dup3\n      add\n      mstore\n        /* \"zombiefeeding.sol\":1597:1629  kittyContract.getKitty(_kittyId) */\n      swap1\n      swap2\n      pop\n        /* \"zombiefeeding.sol\":1636:1681  feedAndMultiply(_zombieId, kittyDna, \"kitty\") */\n      tag_48\n      swap1\n        /* \"zombiefeeding.sol\":1652:1661  _zombieId */\n      dup5\n      swap1\n        /* \"zombiefeeding.sol\":1597:1629  kittyContract.getKitty(_kittyId) */\n      dup4\n      swap1\n        /* \"zombiefeeding.sol\":1636:1651  feedAndMultiply */\n      tag_49\n        /* \"zombiefeeding.sol\":1636:1681  feedAndMultiply(_zombieId, kittyDna, \"kitty\") */\n      jump\t// in\n    tag_48:\n        /* \"zombiefeeding.sol\":1489:1687  function feedOnKitty(uint _zombieId, uint _kittyId) public {\r... */\n      pop\n      pop\n      pop\n      jump\t// out\n        /* \"zombiefactory.sol\":527:550  Zombie[] public zombies */\n    tag_18:\n      0x04\n      dup2\n      dup2\n      sload\n      dup2\n      lt\n      tag_50\n      jumpi\n      invalid\n    tag_50:\n      0x00\n      swap2\n      dup3\n      mstore\n      0x20\n      swap2\n      dup3\n      swap1\n      keccak256\n      0x03\n      swap2\n      swap1\n      swap2\n      mul\n      add\n      dup1\n      sload\n      0x40\n      dup1\n      mload\n      0x02\n      0x01\n      dup5\n      and\n      iszero\n      0x0100\n      mul\n      not(0x00)\n      add\n      swap1\n      swap4\n      and\n      swap3\n      swap1\n      swap3\n      div\n      0x1f\n      dup2\n      add\n      dup6\n      swap1\n      div\n      dup6\n      mul\n      dup4\n      add\n      dup6\n      add\n      swap1\n      swap2\n      mstore\n      dup1\n      dup3\n      mstore\n      swap2\n      swap4\n      pop\n      swap2\n      dup4\n      swap2\n      swap1\n      dup4\n      add\n      dup3\n      dup3\n      dup1\n      iszero\n      tag_52\n      jumpi\n      dup1\n      0x1f\n      lt\n      tag_53\n      jumpi\n      0x0100\n      dup1\n      dup4\n      sload\n      div\n      mul\n      dup4\n      mstore\n      swap2\n      0x20\n      add\n      swap2\n      jump(tag_52)\n    tag_53:\n      dup3\n      add\n      swap2\n      swap1\n      0x00\n      mstore\n      keccak256(0x00, 0x20)\n      swap1\n    tag_54:\n      dup2\n      sload\n      dup2\n      mstore\n      swap1\n      0x01\n      add\n      swap1\n      0x20\n      add\n      dup1\n      dup4\n      gt\n      tag_54\n      jumpi\n      dup3\n      swap1\n      sub\n      0x1f\n      and\n      dup3\n      add\n      swap2\n    tag_52:\n      pop\n      pop\n      pop\n      0x01\n      dup5\n      add\n      sload\n      0x02\n      swap1\n      swap5\n      add\n      sload\n      swap3\n      swap4\n      swap3\n      0xffffffff\n      dup1\n      dup3\n      and\n      swap4\n      pop\n      0x0100000000\n      dup3\n      div\n      and\n      swap2\n      pop\n      0xffff\n      shl(0x40, 0x01)\n      dup3\n      div\n      dup2\n      and\n      swap2\n      shl(0x50, 0x01)\n      swap1\n      div\n      and\n      dup7\n      jump\t// out\n        /* \"zombiefactory.sol\":557:603  mapping (uint => address) public zombieToOwner */\n    tag_25:\n      mstore(0x20, 0x05)\n      0x00\n      swap1\n      dup2\n      mstore\n      0x40\n      swap1\n      keccak256\n      sload\n      sub(shl(0xa0, 0x01), 0x01)\n      and\n      dup2\n      jump\t// out\n        /* \"zombiefeeding.sol\":593:716  function setKittyContractAddress(address _address) external onlyOwner {\r... */\n    tag_28:\n        /* \"ownable.sol\":855:864  isOwner() */\n      tag_56\n        /* \"ownable.sol\":855:862  isOwner */\n      tag_40\n        /* \"ownable.sol\":855:864  isOwner() */\n      jump\t// in\n    tag_56:\n        /* \"ownable.sol\":847:865  require(isOwner()) */\n      tag_57\n      jumpi\n      0x00\n      dup1\n      revert\n    tag_57:\n        /* \"zombiefeeding.sol\":670:683  kittyContract */\n      0x07\n        /* \"zombiefeeding.sol\":670:710  kittyContract = KittyInterface(_address) */\n      dup1\n      sload\n      not(sub(shl(0xa0, 0x01), 0x01))\n      and\n      sub(shl(0xa0, 0x01), 0x01)\n      swap3\n      swap1\n      swap3\n      and\n      swap2\n      swap1\n      swap2\n      or\n      swap1\n      sstore\n        /* \"zombiefeeding.sol\":593:716  function setKittyContractAddress(address _address) external onlyOwner {\r... */\n      jump\t// out\n        /* \"ownable.sol\":1314:1444  function renounceOwnership() public onlyOwner {\r... */\n    tag_30:\n        /* \"ownable.sol\":855:864  isOwner() */\n      tag_60\n        /* \"ownable.sol\":855:862  isOwner */\n      tag_40\n        /* \"ownable.sol\":855:864  isOwner() */\n      jump\t// in\n    tag_60:\n        /* \"ownable.sol\":847:865  require(isOwner()) */\n      tag_61\n      jumpi\n      0x00\n      dup1\n      revert\n    tag_61:\n        /* \"ownable.sol\":1409:1410  0 */\n      0x00\n        /* \"ownable.sol\":1393:1399  _owner */\n      dup1\n      sload\n        /* \"ownable.sol\":1372:1412  OwnershipTransferred(_owner, address(0)) */\n      mload(0x40)\n      sub(shl(0xa0, 0x01), 0x01)\n        /* \"ownable.sol\":1393:1399  _owner */\n      swap1\n      swap2\n      and\n      swap1\n        /* \"ownable.sol\":1372:1412  OwnershipTransferred(_owner, address(0)) */\n      0x8be0079c531659141344cd1fd0a4f28419497f9722a3daafe3b4186f6b6457e0\n      swap1\n        /* \"ownable.sol\":1409:1410  0 */\n      dup4\n      swap1\n        /* \"ownable.sol\":1372:1412  OwnershipTransferred(_owner, address(0)) */\n      log3\n        /* \"ownable.sol\":1436:1437  0 */\n      0x00\n        /* \"ownable.sol\":1419:1438  _owner = address(0) */\n      dup1\n      sload\n      not(sub(shl(0xa0, 0x01), 0x01))\n      and\n      swap1\n      sstore\n        /* \"ownable.sol\":1314:1444  function renounceOwnership() public onlyOwner {\r... */\n      jump\t// out\n        /* \"zombiefactory.sol\":1149:1383  function createRandomZombie(string memory _name) public {\r... */\n    tag_36:\n        /* \"zombiefactory.sol\":1237:1247  msg.sender */\n      caller\n        /* \"zombiefactory.sol\":1220:1248  ownerZombieCount[msg.sender] */\n      0x00\n      swap1\n      dup2\n      mstore\n        /* \"zombiefactory.sol\":1220:1236  ownerZombieCount */\n      0x06\n        /* \"zombiefactory.sol\":1220:1248  ownerZombieCount[msg.sender] */\n      0x20\n      mstore\n      0x40\n      swap1\n      keccak256\n      sload\n        /* \"zombiefactory.sol\":1220:1253  ownerZombieCount[msg.sender] == 0 */\n      iszero\n        /* \"zombiefactory.sol\":1212:1254  require(ownerZombieCount[msg.sender] == 0) */\n      tag_64\n      jumpi\n      0x00\n      dup1\n      revert\n    tag_64:\n        /* \"zombiefactory.sol\":1261:1273  uint randDna */\n      0x00\n        /* \"zombiefactory.sol\":1276:1301  _generateRandomDna(_name) */\n      tag_65\n        /* \"zombiefactory.sol\":1295:1300  _name */\n      dup3\n        /* \"zombiefactory.sol\":1276:1294  _generateRandomDna */\n      tag_66\n        /* \"zombiefactory.sol\":1276:1301  _generateRandomDna(_name) */\n      jump\t// in\n    tag_65:\n        /* \"zombiefactory.sol\":1261:1301  uint randDna = _generateRandomDna(_name) */\n      swap1\n      pop\n        /* \"zombiefactory.sol\":1338:1341  100 */\n      0x64\n        /* \"zombiefactory.sol\":1261:1301  uint randDna = _generateRandomDna(_name) */\n      dup2\n        /* \"zombiefactory.sol\":1328:1341  randDna % 100 */\n      mod\n        /* \"zombiefactory.sol\":1318:1341  randDna - randDna % 100 */\n      swap1\n      sub\n        /* \"zombiefactory.sol\":1348:1377  _createZombie(_name, randDna) */\n      tag_68\n        /* \"zombiefactory.sol\":1362:1367  _name */\n      dup3\n        /* \"zombiefactory.sol\":1318:1341  randDna - randDna % 100 */\n      dup3\n        /* \"zombiefactory.sol\":1348:1361  _createZombie */\n      tag_69\n        /* \"zombiefactory.sol\":1348:1377  _createZombie(_name, randDna) */\n      jump\t// in\n    tag_68:\n        /* \"zombiefactory.sol\":1149:1383  function createRandomZombie(string memory _name) public {\r... */\n      pop\n      pop\n      jump\t// out\n        /* \"ownable.sol\":664:736  function owner() public view returns(address) {\r... */\n    tag_38:\n        /* \"ownable.sol\":701:708  address */\n      0x00\n        /* \"ownable.sol\":724:730  _owner */\n      sload\n      sub(shl(0xa0, 0x01), 0x01)\n      and\n        /* \"ownable.sol\":664:736  function owner() public view returns(address) {\r... */\n    tag_70:\n      swap1\n      jump\t// out\n        /* \"ownable.sol\":962:1047  function isOwner() public view returns(bool) {\r... */\n    tag_40:\n        /* \"ownable.sol\":1001:1005  bool */\n      0x00\n        /* \"ownable.sol\":1035:1041  _owner */\n      sload\n      sub(shl(0xa0, 0x01), 0x01)\n      and\n        /* \"ownable.sol\":1021:1031  msg.sender */\n      caller\n        /* \"ownable.sol\":1021:1041  msg.sender == _owner */\n      eq\n      swap1\n        /* \"ownable.sol\":962:1047  function isOwner() public view returns(bool) {\r... */\n      jump\t// out\n        /* \"ownable.sol\":1608:1711  function transferOwnership(address newOwner) public onlyOwner {\r... */\n    tag_43:\n        /* \"ownable.sol\":855:864  isOwner() */\n      tag_73\n        /* \"ownable.sol\":855:862  isOwner */\n      tag_40\n        /* \"ownable.sol\":855:864  isOwner() */\n      jump\t// in\n    tag_73:\n        /* \"ownable.sol\":847:865  require(isOwner()) */\n      tag_74\n      jumpi\n      0x00\n      dup1\n      revert\n    tag_74:\n        /* \"ownable.sol\":1677:1705  _transferOwnership(newOwner) */\n      tag_76\n        /* \"ownable.sol\":1696:1704  newOwner */\n      dup2\n        /* \"ownable.sol\":1677:1695  _transferOwnership */\n      tag_77\n        /* \"ownable.sol\":1677:1705  _transferOwnership(newOwner) */\n      jump\t// in\n    tag_76:\n        /* \"ownable.sol\":1608:1711  function transferOwnership(address newOwner) public onlyOwner {\r... */\n      pop\n      jump\t// out\n        /* \"zombiefeeding.sol\":971:1483  function feedAndMultiply(uint _zombieId, uint _targetDna, string memory _species) internal onlyOwnerOf(_zombieId) {\r... */\n    tag_49:\n        /* \"zombiefeeding.sol\":548:572  zombieToOwner[_zombieId] */\n      0x00\n      dup4\n      dup2\n      mstore\n        /* \"zombiefeeding.sol\":548:561  zombieToOwner */\n      0x05\n        /* \"zombiefeeding.sol\":548:572  zombieToOwner[_zombieId] */\n      0x20\n      mstore\n      0x40\n      swap1\n      keccak256\n      sload\n      dup4\n      swap1\n      sub(shl(0xa0, 0x01), 0x01)\n      and\n        /* \"zombiefeeding.sol\":534:544  msg.sender */\n      caller\n        /* \"zombiefeeding.sol\":534:572  msg.sender == zombieToOwner[_zombieId] */\n      eq\n        /* \"zombiefeeding.sol\":526:573  require(msg.sender == zombieToOwner[_zombieId]) */\n      tag_79\n      jumpi\n      0x00\n      dup1\n      revert\n    tag_79:\n        /* \"zombiefeeding.sol\":1092:1115  Zombie storage myZombie */\n      0x00\n        /* \"zombiefeeding.sol\":1118:1125  zombies */\n      0x04\n        /* \"zombiefeeding.sol\":1126:1135  _zombieId */\n      dup6\n        /* \"zombiefeeding.sol\":1118:1136  zombies[_zombieId] */\n      dup2\n      sload\n      dup2\n      lt\n      tag_81\n      jumpi\n      invalid\n    tag_81:\n      swap1\n      0x00\n      mstore\n      keccak256(0x00, 0x20)\n      swap1\n      0x03\n      mul\n      add\n        /* \"zombiefeeding.sol\":1092:1136  Zombie storage myZombie = zombies[_zombieId] */\n      swap1\n      pop\n        /* \"zombiefeeding.sol\":1151:1169  _isReady(myZombie) */\n      tag_83\n        /* \"zombiefeeding.sol\":1160:1168  myZombie */\n      dup2\n        /* \"zombiefeeding.sol\":1151:1159  _isReady */\n      tag_84\n        /* \"zombiefeeding.sol\":1151:1169  _isReady(myZombie) */\n      jump\t// in\n    tag_83:\n        /* \"zombiefeeding.sol\":1143:1170  require(_isReady(myZombie)) */\n      tag_85\n      jumpi\n      0x00\n      dup1\n      revert\n    tag_85:\n        /* \"zombiefeeding.sol\":1203:1213  dnaModulus */\n      sload(0x02)\n        /* \"zombiefeeding.sol\":1190:1200  _targetDna */\n      dup5\n        /* \"zombiefeeding.sol\":1190:1213  _targetDna % dnaModulus */\n      dup2\n      tag_86\n      jumpi\n      invalid\n    tag_86:\n      mod\n        /* \"zombiefeeding.sol\":1177:1213  _targetDna = _targetDna % dnaModulus */\n      swap4\n      pop\n        /* \"zombiefeeding.sol\":1220:1231  uint newDna */\n      0x00\n        /* \"zombiefeeding.sol\":1264:1265  2 */\n      0x02\n        /* \"zombiefeeding.sol\":1250:1260  _targetDna */\n      dup6\n        /* \"zombiefeeding.sol\":1235:1243  myZombie */\n      dup4\n        /* \"zombiefeeding.sol\":1235:1247  myZombie.dna */\n      0x01\n      add\n      sload\n        /* \"zombiefeeding.sol\":1235:1260  myZombie.dna + _targetDna */\n      add\n        /* \"zombiefeeding.sol\":1234:1265  (myZombie.dna + _targetDna) / 2 */\n      dup2\n      tag_87\n      jumpi\n      invalid\n    tag_87:\n      div\n        /* \"zombiefeeding.sol\":1220:1265  uint newDna = (myZombie.dna + _targetDna) / 2 */\n      swap1\n      pop\n        /* \"zombiefeeding.sol\":1327:1352  abi.encodePacked(\"kitty\") */\n      add(0x20, mload(0x40))\n      dup1\n      dup1\n      shl(0xd8, 0x6b69747479)\n      dup2\n      mstore\n      pop\n      0x05\n      add\n      swap1\n      pop\n      mload(0x40)\n        /* \"--CODEGEN--\":49:53   */\n      0x20\n        /* \"--CODEGEN--\":39:46   */\n      dup2\n        /* \"--CODEGEN--\":30:37   */\n      dup4\n        /* \"--CODEGEN--\":26:47   */\n      sub\n        /* \"--CODEGEN--\":22:54   */\n      sub\n        /* \"--CODEGEN--\":13:20   */\n      dup2\n        /* \"--CODEGEN--\":6:55   */\n      mstore\n        /* \"zombiefeeding.sol\":1327:1352  abi.encodePacked(\"kitty\") */\n      swap1\n      0x40\n      mstore\n        /* \"zombiefeeding.sol\":1317:1353  keccak256(abi.encodePacked(\"kitty\")) */\n      dup1\n      mload\n      swap1\n      0x20\n      add\n      keccak256\n        /* \"zombiefeeding.sol\":1303:1311  _species */\n      dup5\n        /* \"zombiefeeding.sol\":1286:1312  abi.encodePacked(_species) */\n      add(0x20, mload(0x40))\n      dup1\n      dup3\n      dup1\n      mload\n      swap1\n      0x20\n      add\n      swap1\n      dup1\n      dup4\n      dup4\n        /* \"--CODEGEN--\":36:189   */\n    tag_88:\n        /* \"--CODEGEN--\":66:68   */\n      0x20\n        /* \"--CODEGEN--\":61:64   */\n      dup4\n        /* \"--CODEGEN--\":58:69   */\n      lt\n        /* \"--CODEGEN--\":36:189   */\n      tag_90\n      jumpi\n        /* \"--CODEGEN--\":176:186   */\n      dup1\n      mload\n        /* \"--CODEGEN--\":164:187   */\n      dup3\n      mstore\n      not(0x1f)\n        /* \"--CODEGEN--\":139:151   */\n      swap1\n      swap3\n      add\n      swap2\n        /* \"--CODEGEN--\":98:100   */\n      0x20\n        /* \"--CODEGEN--\":89:101   */\n      swap2\n      dup3\n      add\n      swap2\n        /* \"--CODEGEN--\":114:126   */\n      add\n        /* \"--CODEGEN--\":36:189   */\n      jump(tag_88)\n    tag_90:\n        /* \"--CODEGEN--\":274:275   */\n      0x01\n        /* \"--CODEGEN--\":267:270   */\n      dup4\n        /* \"--CODEGEN--\":263:265   */\n      0x20\n        /* \"--CODEGEN--\":259:271   */\n      sub\n        /* \"--CODEGEN--\":254:257   */\n      0x0100\n        /* \"--CODEGEN--\":250:272   */\n      exp\n        /* \"--CODEGEN--\":246:276   */\n      sub\n        /* \"--CODEGEN--\":315:319   */\n      dup1\n        /* \"--CODEGEN--\":311:320   */\n      not\n        /* \"--CODEGEN--\":305:308   */\n      dup3\n        /* \"--CODEGEN--\":299:309   */\n      mload\n        /* \"--CODEGEN--\":295:321   */\n      and\n        /* \"--CODEGEN--\":356:360   */\n      dup2\n        /* \"--CODEGEN--\":350:353   */\n      dup5\n        /* \"--CODEGEN--\":344:354   */\n      mload\n        /* \"--CODEGEN--\":340:361   */\n      and\n        /* \"--CODEGEN--\":389:396   */\n      dup1\n        /* \"--CODEGEN--\":380:387   */\n      dup3\n        /* \"--CODEGEN--\":377:397   */\n      or\n        /* \"--CODEGEN--\":372:375   */\n      dup6\n        /* \"--CODEGEN--\":365:398   */\n      mstore\n        /* \"--CODEGEN--\":3:402   */\n      pop\n      pop\n      pop\n        /* \"zombiefeeding.sol\":1286:1312  abi.encodePacked(_species) */\n      pop\n      pop\n      pop\n      swap1\n      pop\n      add\n      swap2\n      pop\n      pop\n      mload(0x40)\n        /* \"--CODEGEN--\":49:53   */\n      0x20\n        /* \"--CODEGEN--\":39:46   */\n      dup2\n        /* \"--CODEGEN--\":30:37   */\n      dup4\n        /* \"--CODEGEN--\":26:47   */\n      sub\n        /* \"--CODEGEN--\":22:54   */\n      sub\n        /* \"--CODEGEN--\":13:20   */\n      dup2\n        /* \"--CODEGEN--\":6:55   */\n      mstore\n        /* \"zombiefeeding.sol\":1286:1312  abi.encodePacked(_species) */\n      swap1\n      0x40\n      mstore\n        /* \"zombiefeeding.sol\":1276:1313  keccak256(abi.encodePacked(_species)) */\n      dup1\n      mload\n      swap1\n      0x20\n      add\n      keccak256\n        /* \"zombiefeeding.sol\":1276:1353  keccak256(abi.encodePacked(_species)) == keccak256(abi.encodePacked(\"kitty\")) */\n      eq\n        /* \"zombiefeeding.sol\":1272:1407  if (keccak256(abi.encodePacked(_species)) == keccak256(abi.encodePacked(\"kitty\"))) {\r... */\n      iszero\n      tag_91\n      jumpi\n        /* \"zombiefeeding.sol\":1391:1394  100 */\n      0x64\n        /* \"zombiefeeding.sol\":1382:1394  newDna % 100 */\n      dup2\n      mod\n        /* \"zombiefeeding.sol\":1373:1394  newDna - newDna % 100 */\n      swap1\n      sub\n        /* \"zombiefeeding.sol\":1397:1399  99 */\n      0x63\n        /* \"zombiefeeding.sol\":1373:1399  newDna - newDna % 100 + 99 */\n      add\n        /* \"zombiefeeding.sol\":1272:1407  if (keccak256(abi.encodePacked(_species)) == keccak256(abi.encodePacked(\"kitty\"))) {\r... */\n    tag_91:\n        /* \"zombiefeeding.sol\":1413:1444  _createZombie(\"NoName\", newDna) */\n      tag_93\n      mload(0x40)\n      dup1\n      0x40\n      add\n      0x40\n      mstore\n      dup1\n      0x06\n      dup2\n      mstore\n      0x20\n      add\n      shl(0xd0, 0x4e6f4e616d65)\n      dup2\n      mstore\n      pop\n        /* \"zombiefeeding.sol\":1437:1443  newDna */\n      dup3\n        /* \"zombiefeeding.sol\":1413:1426  _createZombie */\n      tag_69\n        /* \"zombiefeeding.sol\":1413:1444  _createZombie(\"NoName\", newDna) */\n      jump\t// in\n    tag_93:\n        /* \"zombiefeeding.sol\":1451:1477  _triggerCooldown(myZombie) */\n      tag_94\n        /* \"zombiefeeding.sol\":1468:1476  myZombie */\n      dup3\n        /* \"zombiefeeding.sol\":1451:1467  _triggerCooldown */\n      tag_95\n        /* \"zombiefeeding.sol\":1451:1477  _triggerCooldown(myZombie) */\n      jump\t// in\n    tag_94:\n        /* \"zombiefeeding.sol\":580:581  _ */\n      pop\n      pop\n        /* \"zombiefeeding.sol\":971:1483  function feedAndMultiply(uint _zombieId, uint _targetDna, string memory _species) internal onlyOwnerOf(_zombieId) {\r... */\n      pop\n      pop\n      pop\n      pop\n      jump\t// out\n        /* \"zombiefactory.sol\":972:1143  function _generateRandomDna(string memory _str) private view returns (uint) {\r... */\n    tag_66:\n        /* \"zombiefactory.sol\":1042:1046  uint */\n      0x00\n        /* \"zombiefactory.sol\":1055:1064  uint rand */\n      dup1\n        /* \"zombiefactory.sol\":1099:1103  _str */\n      dup3\n        /* \"zombiefactory.sol\":1082:1104  abi.encodePacked(_str) */\n      add(0x20, mload(0x40))\n      dup1\n      dup3\n      dup1\n      mload\n      swap1\n      0x20\n      add\n      swap1\n      dup1\n      dup4\n      dup4\n        /* \"--CODEGEN--\":36:189   */\n    tag_97:\n        /* \"--CODEGEN--\":66:68   */\n      0x20\n        /* \"--CODEGEN--\":61:64   */\n      dup4\n        /* \"--CODEGEN--\":58:69   */\n      lt\n        /* \"--CODEGEN--\":36:189   */\n      tag_99\n      jumpi\n        /* \"--CODEGEN--\":176:186   */\n      dup1\n      mload\n        /* \"--CODEGEN--\":164:187   */\n      dup3\n      mstore\n      not(0x1f)\n        /* \"--CODEGEN--\":139:151   */\n      swap1\n      swap3\n      add\n      swap2\n        /* \"--CODEGEN--\":98:100   */\n      0x20\n        /* \"--CODEGEN--\":89:101   */\n      swap2\n      dup3\n      add\n      swap2\n        /* \"--CODEGEN--\":114:126   */\n      add\n        /* \"--CODEGEN--\":36:189   */\n      jump(tag_97)\n    tag_99:\n        /* \"--CODEGEN--\":274:275   */\n      0x01\n        /* \"--CODEGEN--\":267:270   */\n      dup4\n        /* \"--CODEGEN--\":263:265   */\n      0x20\n        /* \"--CODEGEN--\":259:271   */\n      sub\n        /* \"--CODEGEN--\":254:257   */\n      0x0100\n        /* \"--CODEGEN--\":250:272   */\n      exp\n        /* \"--CODEGEN--\":246:276   */\n      sub\n        /* \"--CODEGEN--\":315:319   */\n      dup1\n        /* \"--CODEGEN--\":311:320   */\n      not\n        /* \"--CODEGEN--\":305:308   */\n      dup3\n        /* \"--CODEGEN--\":299:309   */\n      mload\n        /* \"--CODEGEN--\":295:321   */\n      and\n        /* \"--CODEGEN--\":356:360   */\n      dup2\n        /* \"--CODEGEN--\":350:353   */\n      dup5\n        /* \"--CODEGEN--\":344:354   */\n      mload\n        /* \"--CODEGEN--\":340:361   */\n      and\n        /* \"--CODEGEN--\":389:396   */\n      dup1\n        /* \"--CODEGEN--\":380:387   */\n      dup3\n        /* \"--CODEGEN--\":377:397   */\n      or\n        /* \"--CODEGEN--\":372:375   */\n      dup6\n        /* \"--CODEGEN--\":365:398   */\n      mstore\n        /* \"--CODEGEN--\":3:402   */\n      pop\n      pop\n      pop\n        /* \"zombiefactory.sol\":1082:1104  abi.encodePacked(_str) */\n      pop\n      pop\n      pop\n      swap1\n      pop\n      add\n      swap2\n      pop\n      pop\n      mload(0x40)\n        /* \"--CODEGEN--\":49:53   */\n      0x20\n        /* \"--CODEGEN--\":39:46   */\n      dup2\n        /* \"--CODEGEN--\":30:37   */\n      dup4\n        /* \"--CODEGEN--\":26:47   */\n      sub\n        /* \"--CODEGEN--\":22:54   */\n      sub\n        /* \"--CODEGEN--\":13:20   */\n      dup2\n        /* \"--CODEGEN--\":6:55   */\n      mstore\n        /* \"zombiefactory.sol\":1082:1104  abi.encodePacked(_str) */\n      swap1\n      0x40\n      mstore\n        /* \"zombiefactory.sol\":1072:1105  keccak256(abi.encodePacked(_str)) */\n      dup1\n      mload\n      swap1\n      0x20\n      add\n      keccak256\n        /* \"zombiefactory.sol\":1067:1106  uint(keccak256(abi.encodePacked(_str))) */\n      0x00\n      shr\n        /* \"zombiefactory.sol\":1055:1106  uint rand = uint(keccak256(abi.encodePacked(_str))) */\n      swap1\n      pop\n        /* \"zombiefactory.sol\":1127:1137  dnaModulus */\n      sload(0x02)\n        /* \"zombiefactory.sol\":1120:1124  rand */\n      dup2\n        /* \"zombiefactory.sol\":1120:1137  rand % dnaModulus */\n      dup2\n      tag_100\n      jumpi\n      invalid\n    tag_100:\n      mod\n      swap4\n        /* \"zombiefactory.sol\":972:1143  function _generateRandomDna(string memory _str) private view returns (uint) {\r... */\n      swap3\n      pop\n      pop\n      pop\n      jump\t// out\n        /* \"zombiefactory.sol\":657:966  function _createZombie(string memory _name, uint _dna) internal {\r... */\n    tag_69:\n        /* \"zombiefactory.sol\":751:807  Zombie(_name, _dna, 1, uint32(now + cooldownTime), 0, 0) */\n      0x40\n      dup1\n      mload\n      0xc0\n      dup2\n      add\n      dup3\n      mstore\n      dup4\n      dup2\n      mstore\n      0x20\n      dup1\n      dup3\n      add\n      dup5\n      swap1\n      mstore\n        /* \"zombiefactory.sol\":811:812  1 */\n      0x01\n        /* \"zombiefactory.sol\":751:807  Zombie(_name, _dna, 1, uint32(now + cooldownTime), 0, 0) */\n      swap3\n      dup3\n      add\n      dup4\n      swap1\n      mstore\n        /* \"zombiefactory.sol\":787:799  cooldownTime */\n      0x03\n      dup1\n      sload\n        /* \"zombiefactory.sol\":781:784  now */\n      timestamp\n        /* \"zombiefactory.sol\":781:799  now + cooldownTime */\n      add\n        /* \"zombiefactory.sol\":751:807  Zombie(_name, _dna, 1, uint32(now + cooldownTime), 0, 0) */\n      0xffffffff\n      and\n      0x60\n      dup5\n      add\n      mstore\n        /* \"zombiefactory.sol\":728:735  uint id */\n      0x00\n        /* \"zombiefactory.sol\":751:807  Zombie(_name, _dna, 1, uint32(now + cooldownTime), 0, 0) */\n      0x80\n      dup5\n      add\n      dup2\n      swap1\n      mstore\n      0xa0\n      dup5\n      add\n      dup2\n      swap1\n      mstore\n        /* \"zombiefactory.sol\":738:745  zombies */\n      0x04\n        /* \"--CODEGEN--\":27:37   */\n      dup1\n      sload\n        /* \"--CODEGEN--\":23:41   */\n      dup1\n      dup8\n      add\n        /* \"--CODEGEN--\":45:68   */\n      dup1\n      dup4\n      sstore\n        /* \"zombiefactory.sol\":738:808  zombies.push(Zombie(_name, _dna, 1, uint32(now + cooldownTime), 0, 0)) */\n      swap2\n      dup4\n      mstore\n      dup6\n      mload\n      dup1\n      mload\n        /* \"zombiefactory.sol\":728:735  uint id */\n      swap4\n      swap8\n        /* \"zombiefactory.sol\":811:812  1 */\n      swap7\n        /* \"--CODEGEN--\":23:41   */\n      swap3\n      swap6\n        /* \"zombiefactory.sol\":751:807  Zombie(_name, _dna, 1, uint32(now + cooldownTime), 0, 0) */\n      swap3\n      swap5\n        /* \"zombiefactory.sol\":738:808  zombies.push(Zombie(_name, _dna, 1, uint32(now + cooldownTime), 0, 0)) */\n      swap2\n      swap1\n      swap2\n      mul\n      0x8a35acfbc15ff81a39ae7d344fd709f28e8600b4aa8c65c6b64bfe7fe36bd19b\n      add\n      swap3\n      tag_103\n      swap3\n      dup5\n      swap3\n      add\n      swap1\n      tag_104\n      jump\t// in\n    tag_103:\n      pop\n      0x20\n      dup3\n      dup2\n      add\n      mload\n      0x01\n      dup4\n      dup2\n      add\n      swap2\n      swap1\n      swap2\n      sstore\n      0x40\n      dup1\n      dup6\n      add\n      mload\n      0x02\n      swap1\n      swap5\n      add\n      dup1\n      sload\n      0x60\n      dup8\n      add\n      mload\n      0x80\n      dup9\n      add\n      mload\n      0xa0\n      swap1\n      swap9\n      add\n      mload\n      not(0xffffffff)\n      swap1\n      swap3\n      and\n      0xffffffff\n      swap8\n      dup9\n      and\n      or\n      not(0xffffffff00000000)\n      and\n      0x0100000000\n      swap2\n      dup9\n      and\n      swap2\n      swap1\n      swap2\n      mul\n      or\n      not(0xffff0000000000000000)\n      and\n      shl(0x40, 0x01)\n      0xffff\n      swap9\n      dup10\n      and\n      mul\n      or\n      not(shl(0x50, 0xffff))\n      and\n      shl(0x50, 0x01)\n      swap8\n      swap1\n      swap2\n      and\n      swap7\n      swap1\n      swap7\n      mul\n      swap6\n      swap1\n      swap6\n      or\n      swap1\n      swap5\n      sstore\n        /* \"zombiefactory.sol\":738:812  zombies.push(Zombie(_name, _dna, 1, uint32(now + cooldownTime), 0, 0)) - 1 */\n      swap5\n      swap1\n      swap4\n      sub\n      0x00\n        /* \"zombiefactory.sol\":819:836  zombieToOwner[id] */\n      dup2\n      dup2\n      mstore\n        /* \"zombiefactory.sol\":819:832  zombieToOwner */\n      0x05\n        /* \"zombiefactory.sol\":819:836  zombieToOwner[id] */\n      dup6\n      mstore\n      dup4\n      dup2\n      keccak256\n        /* \"zombiefactory.sol\":819:849  zombieToOwner[id] = msg.sender */\n      dup1\n      sload\n        /* \"zombiefactory.sol\":839:849  msg.sender */\n      caller\n      not(sub(shl(0xa0, 0x01), 0x01))\n        /* \"zombiefactory.sol\":819:849  zombieToOwner[id] = msg.sender */\n      swap1\n      swap2\n      and\n      dup2\n      or\n      swap1\n      swap2\n      sstore\n        /* \"zombiefactory.sol\":887:915  ownerZombieCount[msg.sender] */\n      dup2\n      mstore\n        /* \"zombiefactory.sol\":887:903  ownerZombieCount */\n      0x06\n        /* \"zombiefactory.sol\":887:915  ownerZombieCount[msg.sender] */\n      swap1\n      swap5\n      mstore\n      swap2\n      swap1\n      swap3\n      keccak256\n      sload\n        /* \"zombiefactory.sol\":738:812  zombies.push(Zombie(_name, _dna, 1, uint32(now + cooldownTime), 0, 0)) - 1 */\n      swap1\n      swap4\n      pop\n        /* \"zombiefactory.sol\":887:922  ownerZombieCount[msg.sender].add(1) */\n      tag_105\n      swap3\n        /* \"zombiefactory.sol\":887:915  ownerZombieCount[msg.sender] */\n      swap1\n      swap2\n        /* \"zombiefactory.sol\":887:919  ownerZombieCount[msg.sender].add */\n      tag_106\n        /* \"zombiefactory.sol\":887:922  ownerZombieCount[msg.sender].add(1) */\n      and\n      jump\t// in\n    tag_105:\n        /* \"zombiefactory.sol\":856:872  ownerZombieCount */\n      0x06\n        /* \"zombiefactory.sol\":856:884  ownerZombieCount[msg.sender] */\n      0x00\n        /* \"zombiefactory.sol\":873:883  msg.sender */\n      caller\n      sub(shl(0xa0, 0x01), 0x01)\n        /* \"zombiefactory.sol\":856:884  ownerZombieCount[msg.sender] */\n      and\n      sub(shl(0xa0, 0x01), 0x01)\n      and\n      dup2\n      mstore\n      0x20\n      add\n      swap1\n      dup2\n      mstore\n      0x20\n      add\n      0x00\n      keccak256\n        /* \"zombiefactory.sol\":856:922  ownerZombieCount[msg.sender] = ownerZombieCount[msg.sender].add(1) */\n      dup2\n      swap1\n      sstore\n      pop\n        /* \"zombiefactory.sol\":934:960  NewZombie(id, _name, _dna) */\n      0x88f026aacbbecc90c18411df4b1185fd8d9be2470f1962f192bf84a27d0704b7\n        /* \"zombiefactory.sol\":944:946  id */\n      dup2\n        /* \"zombiefactory.sol\":948:953  _name */\n      dup5\n        /* \"zombiefactory.sol\":955:959  _dna */\n      dup5\n        /* \"zombiefactory.sol\":934:960  NewZombie(id, _name, _dna) */\n      mload(0x40)\n      dup1\n      dup5\n      dup2\n      mstore\n      0x20\n      add\n      dup1\n      0x20\n      add\n      dup4\n      dup2\n      mstore\n      0x20\n      add\n      dup3\n      dup2\n      sub\n      dup3\n      mstore\n      dup5\n      dup2\n      dup2\n      mload\n      dup2\n      mstore\n      0x20\n      add\n      swap2\n      pop\n      dup1\n      mload\n      swap1\n      0x20\n      add\n      swap1\n      dup1\n      dup4\n      dup4\n        /* \"--CODEGEN--\":23:24   */\n      0x00\n        /* \"--CODEGEN--\":8:108   */\n    tag_107:\n        /* \"--CODEGEN--\":33:36   */\n      dup4\n        /* \"--CODEGEN--\":30:31   */\n      dup2\n        /* \"--CODEGEN--\":27:37   */\n      lt\n        /* \"--CODEGEN--\":8:108   */\n      iszero\n      tag_109\n      jumpi\n        /* \"--CODEGEN--\":90:101   */\n      dup2\n      dup2\n      add\n        /* \"--CODEGEN--\":84:102   */\n      mload\n        /* \"--CODEGEN--\":71:82   */\n      dup4\n      dup3\n      add\n        /* \"--CODEGEN--\":64:103   */\n      mstore\n        /* \"--CODEGEN--\":52:54   */\n      0x20\n        /* \"--CODEGEN--\":45:55   */\n      add\n        /* \"--CODEGEN--\":8:108   */\n      jump(tag_107)\n    tag_109:\n        /* \"--CODEGEN--\":12:26   */\n      pop\n        /* \"zombiefactory.sol\":934:960  NewZombie(id, _name, _dna) */\n      pop\n      pop\n      pop\n      swap1\n      pop\n      swap1\n      dup2\n      add\n      swap1\n      0x1f\n      and\n      dup1\n      iszero\n      tag_110\n      jumpi\n      dup1\n      dup3\n      sub\n      dup1\n      mload\n      0x01\n      dup4\n      0x20\n      sub\n      0x0100\n      exp\n      sub\n      not\n      and\n      dup2\n      mstore\n      0x20\n      add\n      swap2\n      pop\n    tag_110:\n      pop\n      swap5\n      pop\n      pop\n      pop\n      pop\n      pop\n      mload(0x40)\n      dup1\n      swap2\n      sub\n      swap1\n      log1\n        /* \"zombiefactory.sol\":657:966  function _createZombie(string memory _name, uint _dna) internal {\r... */\n      pop\n      pop\n      pop\n      jump\t// out\n        /* \"ownable.sol\":1848:2021  function _transferOwnership(address newOwner) internal {\r... */\n    tag_77:\n      sub(shl(0xa0, 0x01), 0x01)\n        /* \"ownable.sol\":1918:1940  newOwner != address(0) */\n      dup2\n      and\n        /* \"ownable.sol\":1910:1941  require(newOwner != address(0)) */\n      tag_112\n      jumpi\n      0x00\n      dup1\n      revert\n    tag_112:\n        /* \"ownable.sol\":1974:1980  _owner */\n      0x00\n      dup1\n      sload\n        /* \"ownable.sol\":1953:1991  OwnershipTransferred(_owner, newOwner) */\n      mload(0x40)\n      sub(shl(0xa0, 0x01), 0x01)\n      dup1\n      dup6\n      and\n      swap4\n        /* \"ownable.sol\":1974:1980  _owner */\n      swap3\n      and\n      swap2\n        /* \"ownable.sol\":1953:1991  OwnershipTransferred(_owner, newOwner) */\n      0x8be0079c531659141344cd1fd0a4f28419497f9722a3daafe3b4186f6b6457e0\n      swap2\n      log3\n        /* \"ownable.sol\":1998:2004  _owner */\n      0x00\n        /* \"ownable.sol\":1998:2015  _owner = newOwner */\n      dup1\n      sload\n      not(sub(shl(0xa0, 0x01), 0x01))\n      and\n      sub(shl(0xa0, 0x01), 0x01)\n      swap3\n      swap1\n      swap3\n      and\n      swap2\n      swap1\n      swap2\n      or\n      swap1\n      sstore\n        /* \"ownable.sol\":1848:2021  function _transferOwnership(address newOwner) internal {\r... */\n      jump\t// out\n        /* \"zombiefeeding.sol\":846:965  function _isReady(Zombie storage _zombie) internal view returns (bool) {\r... */\n    tag_84:\n        /* \"zombiefeeding.sol\":934:951  _zombie.readyTime */\n      0x02\n      add\n      sload\n        /* \"zombiefeeding.sol\":955:958  now */\n      timestamp\n        /* \"zombiefeeding.sol\":934:951  _zombie.readyTime */\n      0x0100000000\n      swap1\n      swap2\n      div\n      0xffffffff\n      and\n        /* \"zombiefeeding.sol\":934:958  _zombie.readyTime <= now */\n      gt\n      iszero\n      swap1\n        /* \"zombiefeeding.sol\":846:965  function _isReady(Zombie storage _zombie) internal view returns (bool) {\r... */\n      jump\t// out\n        /* \"zombiefeeding.sol\":722:840  function _triggerCooldown(Zombie storage _zombie) internal {\r... */\n    tag_95:\n        /* \"zombiefeeding.sol\":821:833  cooldownTime */\n      sload(0x03)\n        /* \"zombiefeeding.sol\":815:818  now */\n      timestamp\n        /* \"zombiefeeding.sol\":815:833  now + cooldownTime */\n      add\n        /* \"zombiefeeding.sol\":788:795  _zombie */\n      dup2\n        /* \"zombiefeeding.sol\":788:805  _zombie.readyTime */\n      0x02\n      add\n      0x04\n        /* \"zombiefeeding.sol\":788:834  _zombie.readyTime = uint32(now + cooldownTime) */\n      0x0100\n      exp\n      dup2\n      sload\n      dup2\n      0xffffffff\n      mul\n      not\n      and\n      swap1\n      dup4\n      0xffffffff\n      and\n      mul\n      or\n      swap1\n      sstore\n      pop\n        /* \"zombiefeeding.sol\":722:840  function _triggerCooldown(Zombie storage _zombie) internal {\r... */\n      pop\n      jump\t// out\n        /* \"safemath.sol\":1054:1187  function add(uint256 a, uint256 b) internal pure returns (uint256) {\r... */\n    tag_106:\n        /* \"safemath.sol\":1112:1119  uint256 */\n      0x00\n        /* \"safemath.sol\":1140:1145  a + b */\n      dup3\n      dup3\n      add\n        /* \"safemath.sol\":1159:1165  c >= a */\n      dup4\n      dup2\n      lt\n      iszero\n        /* \"safemath.sol\":1152:1166  assert(c >= a) */\n      tag_116\n      jumpi\n      invalid\n    tag_116:\n        /* \"safemath.sol\":1180:1181  c */\n      swap4\n        /* \"safemath.sol\":1054:1187  function add(uint256 a, uint256 b) internal pure returns (uint256) {\r... */\n      swap3\n      pop\n      pop\n      pop\n      jump\t// out\n        /* \"zombiefeeding.sol\":400:1690  contract ZombieFeeding is ZombieFactory {\r... */\n    tag_104:\n      dup3\n      dup1\n      sload\n      0x01\n      dup2\n      0x01\n      and\n      iszero\n      0x0100\n      mul\n      sub\n      and\n      0x02\n      swap1\n      div\n      swap1\n      0x00\n      mstore\n      keccak256(0x00, 0x20)\n      swap1\n      0x1f\n      add\n      0x20\n      swap1\n      div\n      dup2\n      add\n      swap3\n      dup3\n      0x1f\n      lt\n      tag_118\n      jumpi\n      dup1\n      mload\n      not(0xff)\n      and\n      dup4\n      dup1\n      add\n      or\n      dup6\n      sstore\n      jump(tag_120)\n    tag_118:\n      dup3\n      dup1\n      add\n      0x01\n      add\n      dup6\n      sstore\n      dup3\n      iszero\n      tag_120\n      jumpi\n      swap2\n      dup3\n      add\n    tag_119:\n      dup3\n      dup2\n      gt\n      iszero\n      tag_120\n      jumpi\n      dup3\n      mload\n      dup3\n      sstore\n      swap2\n      0x20\n      add\n      swap2\n      swap1\n      0x01\n      add\n      swap1\n      jump(tag_119)\n    tag_120:\n      pop\n      tag_121\n      swap3\n      swap2\n      pop\n      tag_122\n      jump\t// in\n    tag_121:\n      pop\n      swap1\n      jump\t// out\n    tag_122:\n      tag_70\n      swap2\n      swap1\n    tag_124:\n      dup1\n      dup3\n      gt\n      iszero\n      tag_121\n      jumpi\n      0x00\n      dup2\n      sstore\n      0x01\n      add\n      jump(tag_124)\n\n    auxdata: 0xa265627a7a723158203be7ca5775af624e5832c9fd6d7e53a5e5c7ec6ccc26a814831f5214f3c32f0864736f6c63430005110032\n}\n",
				"bytecode": {
					"linkReferences": {},
					"object": "608060408190526010600155662386f26fc1000060025562015180600355600080546001600160a01b03191633178082556001600160a01b0316917f8be0079c531659141344cd1fd0a4f28419497f9722a3daafe3b4186f6b6457e0908290a3610b3c8061006e6000396000f3fe608060405234801561001057600080fd5b50600436106100935760003560e01c8063715018a611610066578063715018a6146101e55780637bff0a01146101ed5780638da5cb5b146102935780638f32d59b1461029b578063f2fde38b146102b757610093565b806317a7f4cc146100985780632052465e146100bd578063528b7b8f146101865780635f4623f1146101bf575b600080fd5b6100bb600480360360408110156100ae57600080fd5b50803590602001356102dd565b005b6100da600480360360208110156100d357600080fd5b503561038c565b60408051602080820188905263ffffffff80881693830193909352918516606082015261ffff8085166080830152831660a082015260c080825288519082015287519091829160e08301918a019080838360005b8381101561014657818101518382015260200161012e565b50505050905090810190601f1680156101735780820380516001836020036101000a031916815260200191505b5097505050505050505060405180910390f35b6101a36004803603602081101561019c57600080fd5b5035610470565b604080516001600160a01b039092168252519081900360200190f35b6100bb600480360360208110156101d557600080fd5b50356001600160a01b031661048b565b6100bb6104be565b6100bb6004803603602081101561020357600080fd5b81019060208101813564010000000081111561021e57600080fd5b82018360208201111561023057600080fd5b8035906020019184600183028401116401000000008311171561025257600080fd5b91908080601f016020809104026020016040519081016040528093929190818152602001838380828437600092019190915250929550610519945050505050565b6101a3610554565b6102a3610564565b604080519115158252519081900360200190f35b6100bb600480360360208110156102cd57600080fd5b50356001600160a01b0316610575565b6007546040805163e98b7f4d60e01b81526004810184905290516000926001600160a01b03169163e98b7f4d91602480830192610140929190829003018186803b15801561032a57600080fd5b505afa15801561033e573d6000803e3d6000fd5b505050506040513d61014081101561035557600080fd5b5061012001516040805180820190915260058152646b6974747960d81b60208201529091506103879084908390610592565b505050565b6004818154811061039957fe5b60009182526020918290206003919091020180546040805160026001841615610100026000190190931692909204601f8101859004850283018501909152808252919350918391908301828280156104325780601f1061040757610100808354040283529160200191610432565b820191906000526020600020905b81548152906001019060200180831161041557829003601f168201915b505050600184015460029094015492939263ffffffff8082169350640100000000820416915061ffff600160401b8204811691600160501b90041686565b6005602052600090815260409020546001600160a01b031681565b610493610564565b61049c57600080fd5b600780546001600160a01b0319166001600160a01b0392909216919091179055565b6104c6610564565b6104cf57600080fd5b600080546040516001600160a01b03909116907f8be0079c531659141344cd1fd0a4f28419497f9722a3daafe3b4186f6b6457e0908390a3600080546001600160a01b0319169055565b336000908152600660205260409020541561053357600080fd5b600061053e826106f1565b9050606481069003610550828261077a565b5050565b6000546001600160a01b03165b90565b6000546001600160a01b0316331490565b61057d610564565b61058657600080fd5b61058f816109a8565b50565b60008381526005602052604090205483906001600160a01b031633146105b757600080fd5b6000600485815481106105c657fe5b906000526020600020906003020190506105df81610a16565b6105e857600080fd5b60025484816105f357fe5b06935060006002858360010154018161060857fe5b0490506040516020018080646b6974747960d81b815250600501905060405160208183030381529060405280519060200120846040516020018082805190602001908083835b6020831061066d5780518252601f19909201916020918201910161064e565b6001836020036101000a0380198251168184511680821785525050505050509050019150506040516020818303038152906040528051906020012014156106b8576064810690036063015b6106e0604051806040016040528060068152602001654e6f4e616d6560d01b8152508261077a565b6106e982610a2f565b505050505050565b600080826040516020018082805190602001908083835b602083106107275780518252601f199092019160209182019101610708565b6001836020036101000a0380198251168184511680821785525050505050509050019150506040516020818303038152906040528051906020012060001c9050600254818161077257fe5b069392505050565b6040805160c0810182528381526020808201849052600192820183905260038054420163ffffffff16606084015260006080840181905260a08401819052600480548087018083559183528551805193979692959294919091027f8a35acfbc15ff81a39ae7d344fd709f28e8600b4aa8c65c6b64bfe7fe36bd19b01926108049284920190610a6f565b50602082810151600183810191909155604080850151600290940180546060870151608088015160a09098015163ffffffff1990921663ffffffff9788161767ffffffff000000001916640100000000918816919091021769ffff00000000000000001916600160401b61ffff988916021761ffff60501b1916600160501b979091169690960295909517909455949093036000818152600585528381208054336001600160a01b031990911681179091558152600690945291909220549093506108d1929091610a5916565b60066000336001600160a01b03166001600160a01b03168152602001908152602001600020819055507f88f026aacbbecc90c18411df4b1185fd8d9be2470f1962f192bf84a27d0704b78184846040518084815260200180602001838152602001828103825284818151815260200191508051906020019080838360005b8381101561096757818101518382015260200161094f565b50505050905090810190601f1680156109945780820380516001836020036101000a031916815260200191505b5094505050505060405180910390a1505050565b6001600160a01b0381166109bb57600080fd5b600080546040516001600160a01b03808516939216917f8be0079c531659141344cd1fd0a4f28419497f9722a3daafe3b4186f6b6457e091a3600080546001600160a01b0319166001600160a01b0392909216919091179055565b600201544264010000000090910463ffffffff16111590565b60035442018160020160046101000a81548163ffffffff021916908363ffffffff16021790555050565b600082820183811015610a6857fe5b9392505050565b828054600181600116156101000203166002900490600052602060002090601f016020900481019282601f10610ab057805160ff1916838001178555610add565b82800160010185558215610add579182015b82811115610add578251825591602001919060010190610ac2565b50610ae9929150610aed565b5090565b61056191905b80821115610ae95760008155600101610af356fea265627a7a723158203be7ca5775af624e5832c9fd6d7e53a5e5c7ec6ccc26a814831f5214f3c32f0864736f6c63430005110032",
					"opcodes": "PUSH1 0x80 PUSH1 0x40 DUP2 SWAP1 MSTORE PUSH1 0x10 PUSH1 0x1 SSTORE PUSH7 0x2386F26FC10000 PUSH1 0x2 SSTORE PUSH3 0x15180 PUSH1 0x3 SSTORE PUSH1 0x0 DUP1 SLOAD PUSH1 0x1 PUSH1 0x1 PUSH1 0xA0 SHL SUB NOT AND CALLER OR DUP1 DUP3 SSTORE PUSH1 0x1 PUSH1 0x1 PUSH1 0xA0 SHL SUB AND SWAP2 PUSH32 0x8BE0079C531659141344CD1FD0A4F28419497F9722A3DAAFE3B4186F6B6457E0 SWAP1 DUP3 SWAP1 LOG3 PUSH2 0xB3C DUP1 PUSH2 0x6E PUSH1 0x0 CODECOPY PUSH1 0x0 RETURN INVALID PUSH1 0x80 PUSH1 0x40 MSTORE CALLVALUE DUP1 ISZERO PUSH2 0x10 JUMPI PUSH1 0x0 DUP1 REVERT JUMPDEST POP PUSH1 0x4 CALLDATASIZE LT PUSH2 0x93 JUMPI PUSH1 0x0 CALLDATALOAD PUSH1 0xE0 SHR DUP1 PUSH4 0x715018A6 GT PUSH2 0x66 JUMPI DUP1 PUSH4 0x715018A6 EQ PUSH2 0x1E5 JUMPI DUP1 PUSH4 0x7BFF0A01 EQ PUSH2 0x1ED JUMPI DUP1 PUSH4 0x8DA5CB5B EQ PUSH2 0x293 JUMPI DUP1 PUSH4 0x8F32D59B EQ PUSH2 0x29B JUMPI DUP1 PUSH4 0xF2FDE38B EQ PUSH2 0x2B7 JUMPI PUSH2 0x93 JUMP JUMPDEST DUP1 PUSH4 0x17A7F4CC EQ PUSH2 0x98 JUMPI DUP1 PUSH4 0x2052465E EQ PUSH2 0xBD JUMPI DUP1 PUSH4 0x528B7B8F EQ PUSH2 0x186 JUMPI DUP1 PUSH4 0x5F4623F1 EQ PUSH2 0x1BF JUMPI JUMPDEST PUSH1 0x0 DUP1 REVERT JUMPDEST PUSH2 0xBB PUSH1 0x4 DUP1 CALLDATASIZE SUB PUSH1 0x40 DUP2 LT ISZERO PUSH2 0xAE JUMPI PUSH1 0x0 DUP1 REVERT JUMPDEST POP DUP1 CALLDATALOAD SWAP1 PUSH1 0x20 ADD CALLDATALOAD PUSH2 0x2DD JUMP JUMPDEST STOP JUMPDEST PUSH2 0xDA PUSH1 0x4 DUP1 CALLDATASIZE SUB PUSH1 0x20 DUP2 LT ISZERO PUSH2 0xD3 JUMPI PUSH1 0x0 DUP1 REVERT JUMPDEST POP CALLDATALOAD PUSH2 0x38C JUMP JUMPDEST PUSH1 0x40 DUP1 MLOAD PUSH1 0x20 DUP1 DUP3 ADD DUP9 SWAP1 MSTORE PUSH4 0xFFFFFFFF DUP1 DUP9 AND SWAP4 DUP4 ADD SWAP4 SWAP1 SWAP4 MSTORE SWAP2 DUP6 AND PUSH1 0x60 DUP3 ADD MSTORE PUSH2 0xFFFF DUP1 DUP6 AND PUSH1 0x80 DUP4 ADD MSTORE DUP4 AND PUSH1 0xA0 DUP3 ADD MSTORE PUSH1 0xC0 DUP1 DUP3 MSTORE DUP9 MLOAD SWAP1 DUP3 ADD MSTORE DUP8 MLOAD SWAP1 SWAP2 DUP3 SWAP2 PUSH1 0xE0 DUP4 ADD SWAP2 DUP11 ADD SWAP1 DUP1 DUP4 DUP4 PUSH1 0x0 JUMPDEST DUP4 DUP2 LT ISZERO PUSH2 0x146 JUMPI DUP2 DUP2 ADD MLOAD DUP4 DUP3 ADD MSTORE PUSH1 0x20 ADD PUSH2 0x12E JUMP JUMPDEST POP POP POP POP SWAP1 POP SWAP1 DUP2 ADD SWAP1 PUSH1 0x1F AND DUP1 ISZERO PUSH2 0x173 JUMPI DUP1 DUP3 SUB DUP1 MLOAD PUSH1 0x1 DUP4 PUSH1 0x20 SUB PUSH2 0x100 EXP SUB NOT AND DUP2 MSTORE PUSH1 0x20 ADD SWAP2 POP JUMPDEST POP SWAP8 POP POP POP POP POP POP POP POP PUSH1 0x40 MLOAD DUP1 SWAP2 SUB SWAP1 RETURN JUMPDEST PUSH2 0x1A3 PUSH1 0x4 DUP1 CALLDATASIZE SUB PUSH1 0x20 DUP2 LT ISZERO PUSH2 0x19C JUMPI PUSH1 0x0 DUP1 REVERT JUMPDEST POP CALLDATALOAD PUSH2 0x470 JUMP JUMPDEST PUSH1 0x40 DUP1 MLOAD PUSH1 0x1 PUSH1 0x1 PUSH1 0xA0 SHL SUB SWAP1 SWAP3 AND DUP3 MSTORE MLOAD SWAP1 DUP2 SWAP1 SUB PUSH1 0x20 ADD SWAP1 RETURN JUMPDEST PUSH2 0xBB PUSH1 0x4 DUP1 CALLDATASIZE SUB PUSH1 0x20 DUP2 LT ISZERO PUSH2 0x1D5 JUMPI PUSH1 0x0 DUP1 REVERT JUMPDEST POP CALLDATALOAD PUSH1 0x1 PUSH1 0x1 PUSH1 0xA0 SHL SUB AND PUSH2 0x48B JUMP JUMPDEST PUSH2 0xBB PUSH2 0x4BE JUMP JUMPDEST PUSH2 0xBB PUSH1 0x4 DUP1 CALLDATASIZE SUB PUSH1 0x20 DUP2 LT ISZERO PUSH2 0x203 JUMPI PUSH1 0x0 DUP1 REVERT JUMPDEST DUP2 ADD SWAP1 PUSH1 0x20 DUP2 ADD DUP2 CALLDATALOAD PUSH5 0x100000000 DUP2 GT ISZERO PUSH2 0x21E JUMPI PUSH1 0x0 DUP1 REVERT JUMPDEST DUP3 ADD DUP4 PUSH1 0x20 DUP3 ADD GT ISZERO PUSH2 0x230 JUMPI PUSH1 0x0 DUP1 REVERT JUMPDEST DUP1 CALLDATALOAD SWAP1 PUSH1 0x20 ADD SWAP2 DUP5 PUSH1 0x1 DUP4 MUL DUP5 ADD GT PUSH5 0x100000000 DUP4 GT OR ISZERO PUSH2 0x252 JUMPI PUSH1 0x0 DUP1 REVERT JUMPDEST SWAP2 SWAP1 DUP1 DUP1 PUSH1 0x1F ADD PUSH1 0x20 DUP1 SWAP2 DIV MUL PUSH1 0x20 ADD PUSH1 0x40 MLOAD SWAP1 DUP2 ADD PUSH1 0x40 MSTORE DUP1 SWAP4 SWAP3 SWAP2 SWAP1 DUP2 DUP2 MSTORE PUSH1 0x20 ADD DUP4 DUP4 DUP1 DUP3 DUP5 CALLDATACOPY PUSH1 0x0 SWAP3 ADD SWAP2 SWAP1 SWAP2 MSTORE POP SWAP3 SWAP6 POP PUSH2 0x519 SWAP5 POP POP POP POP POP JUMP JUMPDEST PUSH2 0x1A3 PUSH2 0x554 JUMP JUMPDEST PUSH2 0x2A3 PUSH2 0x564 JUMP JUMPDEST PUSH1 0x40 DUP1 MLOAD SWAP2 ISZERO ISZERO DUP3 MSTORE MLOAD SWAP1 DUP2 SWAP1 SUB PUSH1 0x20 ADD SWAP1 RETURN JUMPDEST PUSH2 0xBB PUSH1 0x4 DUP1 CALLDATASIZE SUB PUSH1 0x20 DUP2 LT ISZERO PUSH2 0x2CD JUMPI PUSH1 0x0 DUP1 REVERT JUMPDEST POP CALLDATALOAD PUSH1 0x1 PUSH1 0x1 PUSH1 0xA0 SHL SUB AND PUSH2 0x575 JUMP JUMPDEST PUSH1 0x7 SLOAD PUSH1 0x40 DUP1 MLOAD PUSH4 0xE98B7F4D PUSH1 0xE0 SHL DUP2 MSTORE PUSH1 0x4 DUP2 ADD DUP5 SWAP1 MSTORE SWAP1 MLOAD PUSH1 0x0 SWAP3 PUSH1 0x1 PUSH1 0x1 PUSH1 0xA0 SHL SUB AND SWAP2 PUSH4 0xE98B7F4D SWAP2 PUSH1 0x24 DUP1 DUP4 ADD SWAP3 PUSH2 0x140 SWAP3 SWAP2 SWAP1 DUP3 SWAP1 SUB ADD DUP2 DUP7 DUP1 EXTCODESIZE ISZERO DUP1 ISZERO PUSH2 0x32A JUMPI PUSH1 0x0 DUP1 REVERT JUMPDEST POP GAS STATICCALL ISZERO DUP1 ISZERO PUSH2 0x33E JUMPI RETURNDATASIZE PUSH1 0x0 DUP1 RETURNDATACOPY RETURNDATASIZE PUSH1 0x0 REVERT JUMPDEST POP POP POP POP PUSH1 0x40 MLOAD RETURNDATASIZE PUSH2 0x140 DUP2 LT ISZERO PUSH2 0x355 JUMPI PUSH1 0x0 DUP1 REVERT JUMPDEST POP PUSH2 0x120 ADD MLOAD PUSH1 0x40 DUP1 MLOAD DUP1 DUP3 ADD SWAP1 SWAP2 MSTORE PUSH1 0x5 DUP2 MSTORE PUSH5 0x6B69747479 PUSH1 0xD8 SHL PUSH1 0x20 DUP3 ADD MSTORE SWAP1 SWAP2 POP PUSH2 0x387 SWAP1 DUP5 SWAP1 DUP4 SWAP1 PUSH2 0x592 JUMP JUMPDEST POP POP POP JUMP JUMPDEST PUSH1 0x4 DUP2 DUP2 SLOAD DUP2 LT PUSH2 0x399 JUMPI INVALID JUMPDEST PUSH1 0x0 SWAP2 DUP3 MSTORE PUSH1 0x20 SWAP2 DUP3 SWAP1 KECCAK256 PUSH1 0x3 SWAP2 SWAP1 SWAP2 MUL ADD DUP1 SLOAD PUSH1 0x40 DUP1 MLOAD PUSH1 0x2 PUSH1 0x1 DUP5 AND ISZERO PUSH2 0x100 MUL PUSH1 0x0 NOT ADD SWAP1 SWAP4 AND SWAP3 SWAP1 SWAP3 DIV PUSH1 0x1F DUP2 ADD DUP6 SWAP1 DIV DUP6 MUL DUP4 ADD DUP6 ADD SWAP1 SWAP2 MSTORE DUP1 DUP3 MSTORE SWAP2 SWAP4 POP SWAP2 DUP4 SWAP2 SWAP1 DUP4 ADD DUP3 DUP3 DUP1 ISZERO PUSH2 0x432 JUMPI DUP1 PUSH1 0x1F LT PUSH2 0x407 JUMPI PUSH2 0x100 DUP1 DUP4 SLOAD DIV MUL DUP4 MSTORE SWAP2 PUSH1 0x20 ADD SWAP2 PUSH2 0x432 JUMP JUMPDEST DUP3 ADD SWAP2 SWAP1 PUSH1 0x0 MSTORE PUSH1 0x20 PUSH1 0x0 KECCAK256 SWAP1 JUMPDEST DUP2 SLOAD DUP2 MSTORE SWAP1 PUSH1 0x1 ADD SWAP1 PUSH1 0x20 ADD DUP1 DUP4 GT PUSH2 0x415 JUMPI DUP3 SWAP1 SUB PUSH1 0x1F AND DUP3 ADD SWAP2 JUMPDEST POP POP POP PUSH1 0x1 DUP5 ADD SLOAD PUSH1 0x2 SWAP1 SWAP5 ADD SLOAD SWAP3 SWAP4 SWAP3 PUSH4 0xFFFFFFFF DUP1 DUP3 AND SWAP4 POP PUSH5 0x100000000 DUP3 DIV AND SWAP2 POP PUSH2 0xFFFF PUSH1 0x1 PUSH1 0x40 SHL DUP3 DIV DUP2 AND SWAP2 PUSH1 0x1 PUSH1 0x50 SHL SWAP1 DIV AND DUP7 JUMP JUMPDEST PUSH1 0x5 PUSH1 0x20 MSTORE PUSH1 0x0 SWAP1 DUP2 MSTORE PUSH1 0x40 SWAP1 KECCAK256 SLOAD PUSH1 0x1 PUSH1 0x1 PUSH1 0xA0 SHL SUB AND DUP2 JUMP JUMPDEST PUSH2 0x493 PUSH2 0x564 JUMP JUMPDEST PUSH2 0x49C JUMPI PUSH1 0x0 DUP1 REVERT JUMPDEST PUSH1 0x7 DUP1 SLOAD PUSH1 0x1 PUSH1 0x1 PUSH1 0xA0 SHL SUB NOT AND PUSH1 0x1 PUSH1 0x1 PUSH1 0xA0 SHL SUB SWAP3 SWAP1 SWAP3 AND SWAP2 SWAP1 SWAP2 OR SWAP1 SSTORE JUMP JUMPDEST PUSH2 0x4C6 PUSH2 0x564 JUMP JUMPDEST PUSH2 0x4CF JUMPI PUSH1 0x0 DUP1 REVERT JUMPDEST PUSH1 0x0 DUP1 SLOAD PUSH1 0x40 MLOAD PUSH1 0x1 PUSH1 0x1 PUSH1 0xA0 SHL SUB SWAP1 SWAP2 AND SWAP1 PUSH32 0x8BE0079C531659141344CD1FD0A4F28419497F9722A3DAAFE3B4186F6B6457E0 SWAP1 DUP4 SWAP1 LOG3 PUSH1 0x0 DUP1 SLOAD PUSH1 0x1 PUSH1 0x1 PUSH1 0xA0 SHL SUB NOT AND SWAP1 SSTORE JUMP JUMPDEST CALLER PUSH1 0x0 SWAP1 DUP2 MSTORE PUSH1 0x6 PUSH1 0x20 MSTORE PUSH1 0x40 SWAP1 KECCAK256 SLOAD ISZERO PUSH2 0x533 JUMPI PUSH1 0x0 DUP1 REVERT JUMPDEST PUSH1 0x0 PUSH2 0x53E DUP3 PUSH2 0x6F1 JUMP JUMPDEST SWAP1 POP PUSH1 0x64 DUP2 MOD SWAP1 SUB PUSH2 0x550 DUP3 DUP3 PUSH2 0x77A JUMP JUMPDEST POP POP JUMP JUMPDEST PUSH1 0x0 SLOAD PUSH1 0x1 PUSH1 0x1 PUSH1 0xA0 SHL SUB AND JUMPDEST SWAP1 JUMP JUMPDEST PUSH1 0x0 SLOAD PUSH1 0x1 PUSH1 0x1 PUSH1 0xA0 SHL SUB AND CALLER EQ SWAP1 JUMP JUMPDEST PUSH2 0x57D PUSH2 0x564 JUMP JUMPDEST PUSH2 0x586 JUMPI PUSH1 0x0 DUP1 REVERT JUMPDEST PUSH2 0x58F DUP2 PUSH2 0x9A8 JUMP JUMPDEST POP JUMP JUMPDEST PUSH1 0x0 DUP4 DUP2 MSTORE PUSH1 0x5 PUSH1 0x20 MSTORE PUSH1 0x40 SWAP1 KECCAK256 SLOAD DUP4 SWAP1 PUSH1 0x1 PUSH1 0x1 PUSH1 0xA0 SHL SUB AND CALLER EQ PUSH2 0x5B7 JUMPI PUSH1 0x0 DUP1 REVERT JUMPDEST PUSH1 0x0 PUSH1 0x4 DUP6 DUP2 SLOAD DUP2 LT PUSH2 0x5C6 JUMPI INVALID JUMPDEST SWAP1 PUSH1 0x0 MSTORE PUSH1 0x20 PUSH1 0x0 KECCAK256 SWAP1 PUSH1 0x3 MUL ADD SWAP1 POP PUSH2 0x5DF DUP2 PUSH2 0xA16 JUMP JUMPDEST PUSH2 0x5E8 JUMPI PUSH1 0x0 DUP1 REVERT JUMPDEST PUSH1 0x2 SLOAD DUP5 DUP2 PUSH2 0x5F3 JUMPI INVALID JUMPDEST MOD SWAP4 POP PUSH1 0x0 PUSH1 0x2 DUP6 DUP4 PUSH1 0x1 ADD SLOAD ADD DUP2 PUSH2 0x608 JUMPI INVALID JUMPDEST DIV SWAP1 POP PUSH1 0x40 MLOAD PUSH1 0x20 ADD DUP1 DUP1 PUSH5 0x6B69747479 PUSH1 0xD8 SHL DUP2 MSTORE POP PUSH1 0x5 ADD SWAP1 POP PUSH1 0x40 MLOAD PUSH1 0x20 DUP2 DUP4 SUB SUB DUP2 MSTORE SWAP1 PUSH1 0x40 MSTORE DUP1 MLOAD SWAP1 PUSH1 0x20 ADD KECCAK256 DUP5 PUSH1 0x40 MLOAD PUSH1 0x20 ADD DUP1 DUP3 DUP1 MLOAD SWAP1 PUSH1 0x20 ADD SWAP1 DUP1 DUP4 DUP4 JUMPDEST PUSH1 0x20 DUP4 LT PUSH2 0x66D JUMPI DUP1 MLOAD DUP3 MSTORE PUSH1 0x1F NOT SWAP1 SWAP3 ADD SWAP2 PUSH1 0x20 SWAP2 DUP3 ADD SWAP2 ADD PUSH2 0x64E JUMP JUMPDEST PUSH1 0x1 DUP4 PUSH1 0x20 SUB PUSH2 0x100 EXP SUB DUP1 NOT DUP3 MLOAD AND DUP2 DUP5 MLOAD AND DUP1 DUP3 OR DUP6 MSTORE POP POP POP POP POP POP SWAP1 POP ADD SWAP2 POP POP PUSH1 0x40 MLOAD PUSH1 0x20 DUP2 DUP4 SUB SUB DUP2 MSTORE SWAP1 PUSH1 0x40 MSTORE DUP1 MLOAD SWAP1 PUSH1 0x20 ADD KECCAK256 EQ ISZERO PUSH2 0x6B8 JUMPI PUSH1 0x64 DUP2 MOD SWAP1 SUB PUSH1 0x63 ADD JUMPDEST PUSH2 0x6E0 PUSH1 0x40 MLOAD DUP1 PUSH1 0x40 ADD PUSH1 0x40 MSTORE DUP1 PUSH1 0x6 DUP2 MSTORE PUSH1 0x20 ADD PUSH6 0x4E6F4E616D65 PUSH1 0xD0 SHL DUP2 MSTORE POP DUP3 PUSH2 0x77A JUMP JUMPDEST PUSH2 0x6E9 DUP3 PUSH2 0xA2F JUMP JUMPDEST POP POP POP POP POP POP JUMP JUMPDEST PUSH1 0x0 DUP1 DUP3 PUSH1 0x40 MLOAD PUSH1 0x20 ADD DUP1 DUP3 DUP1 MLOAD SWAP1 PUSH1 0x20 ADD SWAP1 DUP1 DUP4 DUP4 JUMPDEST PUSH1 0x20 DUP4 LT PUSH2 0x727 JUMPI DUP1 MLOAD DUP3 MSTORE PUSH1 0x1F NOT SWAP1 SWAP3 ADD SWAP2 PUSH1 0x20 SWAP2 DUP3 ADD SWAP2 ADD PUSH2 0x708 JUMP JUMPDEST PUSH1 0x1 DUP4 PUSH1 0x20 SUB PUSH2 0x100 EXP SUB DUP1 NOT DUP3 MLOAD AND DUP2 DUP5 MLOAD AND DUP1 DUP3 OR DUP6 MSTORE POP POP POP POP POP POP SWAP1 POP ADD SWAP2 POP POP PUSH1 0x40 MLOAD PUSH1 0x20 DUP2 DUP4 SUB SUB DUP2 MSTORE SWAP1 PUSH1 0x40 MSTORE DUP1 MLOAD SWAP1 PUSH1 0x20 ADD KECCAK256 PUSH1 0x0 SHR SWAP1 POP PUSH1 0x2 SLOAD DUP2 DUP2 PUSH2 0x772 JUMPI INVALID JUMPDEST MOD SWAP4 SWAP3 POP POP POP JUMP JUMPDEST PUSH1 0x40 DUP1 MLOAD PUSH1 0xC0 DUP2 ADD DUP3 MSTORE DUP4 DUP2 MSTORE PUSH1 0x20 DUP1 DUP3 ADD DUP5 SWAP1 MSTORE PUSH1 0x1 SWAP3 DUP3 ADD DUP4 SWAP1 MSTORE PUSH1 0x3 DUP1 SLOAD TIMESTAMP ADD PUSH4 0xFFFFFFFF AND PUSH1 0x60 DUP5 ADD MSTORE PUSH1 0x0 PUSH1 0x80 DUP5 ADD DUP2 SWAP1 MSTORE PUSH1 0xA0 DUP5 ADD DUP2 SWAP1 MSTORE PUSH1 0x4 DUP1 SLOAD DUP1 DUP8 ADD DUP1 DUP4 SSTORE SWAP2 DUP4 MSTORE DUP6 MLOAD DUP1 MLOAD SWAP4 SWAP8 SWAP7 SWAP3 SWAP6 SWAP3 SWAP5 SWAP2 SWAP1 SWAP2 MUL PUSH32 0x8A35ACFBC15FF81A39AE7D344FD709F28E8600B4AA8C65C6B64BFE7FE36BD19B ADD SWAP3 PUSH2 0x804 SWAP3 DUP5 SWAP3 ADD SWAP1 PUSH2 0xA6F JUMP JUMPDEST POP PUSH1 0x20 DUP3 DUP2 ADD MLOAD PUSH1 0x1 DUP4 DUP2 ADD SWAP2 SWAP1 SWAP2 SSTORE PUSH1 0x40 DUP1 DUP6 ADD MLOAD PUSH1 0x2 SWAP1 SWAP5 ADD DUP1 SLOAD PUSH1 0x60 DUP8 ADD MLOAD PUSH1 0x80 DUP9 ADD MLOAD PUSH1 0xA0 SWAP1 SWAP9 ADD MLOAD PUSH4 0xFFFFFFFF NOT SWAP1 SWAP3 AND PUSH4 0xFFFFFFFF SWAP8 DUP9 AND OR PUSH8 0xFFFFFFFF00000000 NOT AND PUSH5 0x100000000 SWAP2 DUP9 AND SWAP2 SWAP1 SWAP2 MUL OR PUSH10 0xFFFF0000000000000000 NOT AND PUSH1 0x1 PUSH1 0x40 SHL PUSH2 0xFFFF SWAP9 DUP10 AND MUL OR PUSH2 0xFFFF PUSH1 0x50 SHL NOT AND PUSH1 0x1 PUSH1 0x50 SHL SWAP8 SWAP1 SWAP2 AND SWAP7 SWAP1 SWAP7 MUL SWAP6 SWAP1 SWAP6 OR SWAP1 SWAP5 SSTORE SWAP5 SWAP1 SWAP4 SUB PUSH1 0x0 DUP2 DUP2 MSTORE PUSH1 0x5 DUP6 MSTORE DUP4 DUP2 KECCAK256 DUP1 SLOAD CALLER PUSH1 0x1 PUSH1 0x1 PUSH1 0xA0 SHL SUB NOT SWAP1 SWAP2 AND DUP2 OR SWAP1 SWAP2 SSTORE DUP2 MSTORE PUSH1 0x6 SWAP1 SWAP5 MSTORE SWAP2 SWAP1 SWAP3 KECCAK256 SLOAD SWAP1 SWAP4 POP PUSH2 0x8D1 SWAP3 SWAP1 SWAP2 PUSH2 0xA59 AND JUMP JUMPDEST PUSH1 0x6 PUSH1 0x0 CALLER PUSH1 0x1 PUSH1 0x1 PUSH1 0xA0 SHL SUB AND PUSH1 0x1 PUSH1 0x1 PUSH1 0xA0 SHL SUB AND DUP2 MSTORE PUSH1 0x20 ADD SWAP1 DUP2 MSTORE PUSH1 0x20 ADD PUSH1 0x0 KECCAK256 DUP2 SWAP1 SSTORE POP PUSH32 0x88F026AACBBECC90C18411DF4B1185FD8D9BE2470F1962F192BF84A27D0704B7 DUP2 DUP5 DUP5 PUSH1 0x40 MLOAD DUP1 DUP5 DUP2 MSTORE PUSH1 0x20 ADD DUP1 PUSH1 0x20 ADD DUP4 DUP2 MSTORE PUSH1 0x20 ADD DUP3 DUP2 SUB DUP3 MSTORE DUP5 DUP2 DUP2 MLOAD DUP2 MSTORE PUSH1 0x20 ADD SWAP2 POP DUP1 MLOAD SWAP1 PUSH1 0x20 ADD SWAP1 DUP1 DUP4 DUP4 PUSH1 0x0 JUMPDEST DUP4 DUP2 LT ISZERO PUSH2 0x967 JUMPI DUP2 DUP2 ADD MLOAD DUP4 DUP3 ADD MSTORE PUSH1 0x20 ADD PUSH2 0x94F JUMP JUMPDEST POP POP POP POP SWAP1 POP SWAP1 DUP2 ADD SWAP1 PUSH1 0x1F AND DUP1 ISZERO PUSH2 0x994 JUMPI DUP1 DUP3 SUB DUP1 MLOAD PUSH1 0x1 DUP4 PUSH1 0x20 SUB PUSH2 0x100 EXP SUB NOT AND DUP2 MSTORE PUSH1 0x20 ADD SWAP2 POP JUMPDEST POP SWAP5 POP POP POP POP POP PUSH1 0x40 MLOAD DUP1 SWAP2 SUB SWAP1 LOG1 POP POP POP JUMP JUMPDEST PUSH1 0x1 PUSH1 0x1 PUSH1 0xA0 SHL SUB DUP2 AND PUSH2 0x9BB JUMPI PUSH1 0x0 DUP1 REVERT JUMPDEST PUSH1 0x0 DUP1 SLOAD PUSH1 0x40 MLOAD PUSH1 0x1 PUSH1 0x1 PUSH1 0xA0 SHL SUB DUP1 DUP6 AND SWAP4 SWAP3 AND SWAP2 PUSH32 0x8BE0079C531659141344CD1FD0A4F28419497F9722A3DAAFE3B4186F6B6457E0 SWAP2 LOG3 PUSH1 0x0 DUP1 SLOAD PUSH1 0x1 PUSH1 0x1 PUSH1 0xA0 SHL SUB NOT AND PUSH1 0x1 PUSH1 0x1 PUSH1 0xA0 SHL SUB SWAP3 SWAP1 SWAP3 AND SWAP2 SWAP1 SWAP2 OR SWAP1 SSTORE JUMP JUMPDEST PUSH1 0x2 ADD SLOAD TIMESTAMP PUSH5 0x100000000 SWAP1 SWAP2 DIV PUSH4 0xFFFFFFFF AND GT ISZERO SWAP1 JUMP JUMPDEST PUSH1 0x3 SLOAD TIMESTAMP ADD DUP2 PUSH1 0x2 ADD PUSH1 0x4 PUSH2 0x100 EXP DUP2 SLOAD DUP2 PUSH4 0xFFFFFFFF MUL NOT AND SWAP1 DUP4 PUSH4 0xFFFFFFFF AND MUL OR SWAP1 SSTORE POP POP JUMP JUMPDEST PUSH1 0x0 DUP3 DUP3 ADD DUP4 DUP2 LT ISZERO PUSH2 0xA68 JUMPI INVALID JUMPDEST SWAP4 SWAP3 POP POP POP JUMP JUMPDEST DUP3 DUP1 SLOAD PUSH1 0x1 DUP2 PUSH1 0x1 AND ISZERO PUSH2 0x100 MUL SUB AND PUSH1 0x2 SWAP1 DIV SWAP1 PUSH1 0x0 MSTORE PUSH1 0x20 PUSH1 0x0 KECCAK256 SWAP1 PUSH1 0x1F ADD PUSH1 0x20 SWAP1 DIV DUP2 ADD SWAP3 DUP3 PUSH1 0x1F LT PUSH2 0xAB0 JUMPI DUP1 MLOAD PUSH1 0xFF NOT AND DUP4 DUP1 ADD OR DUP6 SSTORE PUSH2 0xADD JUMP JUMPDEST DUP3 DUP1 ADD PUSH1 0x1 ADD DUP6 SSTORE DUP3 ISZERO PUSH2 0xADD JUMPI SWAP2 DUP3 ADD JUMPDEST DUP3 DUP2 GT ISZERO PUSH2 0xADD JUMPI DUP3 MLOAD DUP3 SSTORE SWAP2 PUSH1 0x20 ADD SWAP2 SWAP1 PUSH1 0x1 ADD SWAP1 PUSH2 0xAC2 JUMP JUMPDEST POP PUSH2 0xAE9 SWAP3 SWAP2 POP PUSH2 0xAED JUMP JUMPDEST POP SWAP1 JUMP JUMPDEST PUSH2 0x561 SWAP2 SWAP1 JUMPDEST DUP1 DUP3 GT ISZERO PUSH2 0xAE9 JUMPI PUSH1 0x0 DUP2 SSTORE PUSH1 0x1 ADD PUSH2 0xAF3 JUMP INVALID LOG2 PUSH6 0x627A7A723158 KECCAK256 EXTCODESIZE 0xE7 0xCA JUMPI PUSH22 0xAF624E5832C9FD6D7E53A5E5C7EC6CCC26A814831F52 EQ RETURN 0xC3 0x2F ADDMOD PUSH5 0x736F6C6343 STOP SDIV GT STOP ORIGIN "
				},
				"gasEstimates": {
					"creation": {
						"codeDepositCost": "575200",
						"executionCost": "82977",
						"totalCost": "658177"
					},
					"external": {
						"createRandomZombie(string)": "infinite",
						"feedOnKitty(uint256,uint256)": "infinite",
						"isOwner()": "1093",
						"owner()": "1082",
						"renounceOwnership()": "24192",
						"setKittyContractAddress(address)": "22007",
						"transferOwnership(address)": "24446",
						"zombieToOwner(uint256)": "1190",
						"zombies(uint256)": "infinite"
					},
					"internal": {
						"_isReady(struct ZombieFactory.Zombie storage pointer)": "846",
						"_triggerCooldown(struct ZombieFactory.Zombie storage pointer)": "21739",
						"feedAndMultiply(uint256,uint256,string memory)": "infinite"
					}
				},
				"methodIdentifiers": {
					"createRandomZombie(string)": "7bff0a01",
					"feedOnKitty(uint256,uint256)": "17a7f4cc",
					"isOwner()": "8f32d59b",
					"owner()": "8da5cb5b",
					"renounceOwnership()": "715018a6",
					"setKittyContractAddress(address)": "5f4623f1",
					"transferOwnership(address)": "f2fde38b",
					"zombieToOwner(uint256)": "528b7b8f",
					"zombies(uint256)": "2052465e"
				}
			},
			"storageLayout": {
				"storage": [
					{
						"astId": 3,
						"contract": "zombiefeeding.sol:ZombieFeeding",
						"label": "_owner",
						"offset": 0,
						"slot": "0",
						"type": "t_address"
					},
					{
						"astId": 424,
						"contract": "zombiefeeding.sol:ZombieFeeding",
						"label": "dnaDigits",
						"offset": 0,
						"slot": "1",
						"type": "t_uint256"
					},
					{
						"astId": 429,
						"contract": "zombiefeeding.sol:ZombieFeeding",
						"label": "dnaModulus",
						"offset": 0,
						"slot": "2",
						"type": "t_uint256"
					},
					{
						"astId": 432,
						"contract": "zombiefeeding.sol:ZombieFeeding",
						"label": "cooldownTime",
						"offset": 0,
						"slot": "3",
						"type": "t_uint256"
					},
					{
						"astId": 448,
						"contract": "zombiefeeding.sol:ZombieFeeding",
						"label": "zombies",
						"offset": 0,
						"slot": "4",
						"type": "t_array(t_struct(Zombie)445_storage)dyn_storage"
					},
					{
						"astId": 452,
						"contract": "zombiefeeding.sol:ZombieFeeding",
						"label": "zombieToOwner",
						"offset": 0,
						"slot": "5",
						"type": "t_mapping(t_uint256,t_address)"
					},
					{
						"astId": 456,
						"contract": "zombiefeeding.sol:ZombieFeeding",
						"label": "ownerZombieCount",
						"offset": 0,
						"slot": "6",
						"type": "t_mapping(t_address,t_uint256)"
					},
					{
						"astId": 601,
						"contract": "zombiefeeding.sol:ZombieFeeding",
						"label": "kittyContract",
						"offset": 0,
						"slot": "7",
						"type": "t_contract(KittyInterface)597"
					}
				],
				"types": {
					"t_address": {
						"encoding": "inplace",
						"label": "address",
						"numberOfBytes": "20"
					},
					"t_array(t_struct(Zombie)445_storage)dyn_storage": {
						"base": "t_struct(Zombie)445_storage",
						"encoding": "dynamic_array",
						"label": "struct ZombieFactory.Zombie[]",
						"numberOfBytes": "32"
					},
					"t_contract(KittyInterface)597": {
						"encoding": "inplace",
						"label": "contract KittyInterface",
						"numberOfBytes": "20"
					},
					"t_mapping(t_address,t_uint256)": {
						"encoding": "mapping",
						"key": "t_address",
						"label": "mapping(address => uint256)",
						"numberOfBytes": "32",
						"value": "t_uint256"
					},
					"t_mapping(t_uint256,t_address)": {
						"encoding": "mapping",
						"key": "t_uint256",
						"label": "mapping(uint256 => address)",
						"numberOfBytes": "32",
						"value": "t_address"
					},
					"t_string_storage": {
						"encoding": "bytes",
						"label": "string",
						"numberOfBytes": "32"
					},
					"t_struct(Zombie)445_storage": {
						"encoding": "inplace",
						"label": "struct ZombieFactory.Zombie",
						"members": [
							{
								"astId": 434,
								"contract": "zombiefeeding.sol:ZombieFeeding",
								"label": "name",
								"offset": 0,
								"slot": "0",
								"type": "t_string_storage"
							},
							{
								"astId": 436,
								"contract": "zombiefeeding.sol:ZombieFeeding",
								"label": "dna",
								"offset": 0,
								"slot": "1",
								"type": "t_uint256"
							},
							{
								"astId": 438,
								"contract": "zombiefeeding.sol:ZombieFeeding",
								"label": "level",
								"offset": 0,
								"slot": "2",
								"type": "t_uint32"
							},
							{
								"astId": 440,
								"contract": "zombiefeeding.sol:ZombieFeeding",
								"label": "readyTime",
								"offset": 4,
								"slot": "2",
								"type": "t_uint32"
							},
							{
								"astId": 442,
								"contract": "zombiefeeding.sol:ZombieFeeding",
								"label": "winCount",
								"offset": 8,
								"slot": "2",
								"type": "t_uint16"
							},
							{
								"astId": 444,
								"contract": "zombiefeeding.sol:ZombieFeeding",
								"label": "lossCount",
								"offset": 10,
								"slot": "2",
								"type": "t_uint16"
							}
						],
						"numberOfBytes": "96"
					},
					"t_uint16": {
						"encoding": "inplace",
						"label": "uint16",
						"numberOfBytes": "2"
					},
					"t_uint256": {
						"encoding": "inplace",
						"label": "uint256",
						"numberOfBytes": "32"
					},
					"t_uint32": {
						"encoding": "inplace",
						"label": "uint32",
						"numberOfBytes": "4"
					}
				}
			},
			"userdoc": {
				"methods": {
					"renounceOwnership()": {
						"notice": "Renouncing to ownership will leave the contract without an owner. It will not be possible to call the functions with the `onlyOwner` modifier anymore."
					}
				}
			}
		}
	}
}